:100000000C94E9000C9411010C9411010C94110151
:100010000C9411010C9411010C9411010C94110118
:100020000C9411010C9411010C94C9030C943B0421
:100030000C9411010C9411010C9411010C941101F8
:100040000C9411010C9465070C9411010C9411018E
:100050000C9411010C9411010C9411010C94ED0CF1
:100060000C9411010C9411010C9411010C941101C8
:100070000C9411010C9411010C9411010C941101B8
:100080000C9411010C9411010C9411010C941101A8
:100090000C9411010C9411010C9411010C94110198
:1000A0000C9411010C946B060C9411015F0B620B04
:1000B000510B550B590B830B830B830B660B6A0B90
:1000C0006E0B740B780B830B7E0B080B0002020285
:1000D00001000904000001020200000524001001D3
:1000E0000524010101042402060524060001070578
:1000F000810310004009040100020A000000070506
:1001000002024000000705830240000004030904C6
:1001100012010002EF020140412337800001010279
:10012000030141726475696E6F204C4C430041724B
:100130006475696E6F204D6963726F000706050470
:100140000100080A0B0C0D090000000200090F0055
:1001500000030401000C000000000000000000008B
:100160000000000000000000000000240027002A1A
:10017000002D003000000000002300260029002C84
:10018000002F0000000000250028002B002E003169
:10019000000404040404030405020202020403022E
:1001A000020202060606060606040402020204040F
:1001B0000408020110408040102040804080080266
:1001C00004018040201002011080102040402000D7
:1001D000511011241FBECFEFDAE0DEBFCDBF11E01A
:1001E000A0E0B1E0E4EEFEE202C005900D92A4337F
:1001F000B107D9F722E0A4E3B1E001C01D92AC340D
:10020000B207E1F710E0C9EED0E004C02197FE018B
:100210000E945715C83ED107C9F70E94370D0C94AC
:1002200070170C94000040913E0150913F012091C5
:100230003C0130913D0142175307B4F49091E8001E
:100240009570E1F39091E80092FD19C08093F10060
:1002500080913E0190913F0101968F739927892BE0
:1002600019F48EEF8093E80080913E0190913F0158
:10027000019690933F0180933E0181E0089580E0D4
:100280000895CF92DF92EF92FF920F931F93CF9337
:10029000DF931F92CDB7DEB7182F062FE42E862FDF
:1002A000880F8E5F99830E94130183E00E941301DF
:1002B000F12EC12E9981D92E8C2D8F19801798F48B
:1002C000F601E7FE02C0849101C080810E94130103
:1002D000182F80E00E9413018123FFEFCF1ADF0A5D
:1002E0008111EACF01C081E00F90DF91CF911F9182
:1002F0000F91FF90EF90DF90CF900895DF92EF92F3
:10030000FF920F931F93CF93DF93D82E8A017B0127
:10031000E40EF51EEB01CE15DF0571F0D7FE03C02C
:10032000FE01849101C088810E94130121968111F0
:10033000F2CF8FEF9FEF01C0C801DF91CF911F91E6
:100340000F91FF90EF90DF900895615030F0209171
:10035000F100FC0120830196F8CF289A84E680936F
:1003600068010895CF92DF92EF92FF920F931F934F
:10037000CF93DF936C017A018B01C0E0D0E0CE1502
:10038000DF0589F0D8016D918D01D601ED91FC91C9
:100390000190F081E02DC6010995892B11F47E01B1
:1003A00002C02196ECCFC701DF91CF911F910F9131
:1003B000FF90EF90DF90CF900895CF93DF931F923F
:1003C000CDB7DEB76983DC01ED91FC910280F3814A
:1003D000E02D41E050E0BE016F5F7F4F09950F9027
:1003E000DF91CF91089583E08093E9008091F2003E
:1003F000882319F08AE38093E8000895FC0184853E
:10040000958597FD0BC09FB7F89482E08093E90033
:100410008091F2009FBF90E0019608959FB7F894F5
:1004200082E08093E9008091F2009FBF90E0089500
:10043000089580E090E008950F931F93CF93DF938A
:100440001F92CDB7DEB782E0898342E450E06AECC8
:1004500070E080E80E947E010E94200BDC01129671
:100460000D911C9113970115110569F0D801ED91BB
:10047000FC910280F381E02DBE016F5F7F4FC801C8
:10048000099597FF07C089810F90DF91CF911F9148
:100490000F910895F80100851185E5CF8F929F9205
:1004A000AF92BF92CF92DF92EF92FF920F931F9382
:1004B000CF93DF935C016B017A0180910B0188235C
:1004C00009F45BC080916901882309F456C08091CA
:1004D000420180FF05C08091E00082608093E000CF
:1004E000E70110E00AEF83E0882E9AE3992E209727
:1004F000D9F10E940F0B81110AC0015009F43DC0CF
:1005000061E070E080E090E00E94B30CF0CF282F13
:1005100030E0C217D3070CF48C2F4FB7F8948092B9
:10052000E9009091E80095FF1DC0282F30E0C21B24
:10053000D30BF601982F915020F081918093F10018
:10054000FACFC20ED31E112319F09092E80009C011
:100550008091E80085FD06C09092E80011E02097A8
:1005600009F010E04FBFC3CF1111C3CF5D9A84E6ED
:10057000809340011E141F0444F081E090E0F501D7
:100580009383828380E090E001C0C701DF91CF9127
:100590001F910F91FF90EF90DF90CF90BF90AF90A1
:1005A0009F908F9008950E940F0B90E008950F93F5
:1005B0001F93CF93DF931F92CDB7DEB78C01FC0161
:1005C0008485958597FF0EC0CE0101960E94E50AAD
:1005D000019719F4298130E002C02FEF3FEFF801B5
:1005E00035872487F801848595850F90DF91CF9119
:1005F0001F910F910895CF93DF931F92CDB7DEB770
:10060000FC018485958597FD05C02FEF3FEF358769
:1006100024870BC0CE0101960E94E50A019719F4C8
:10062000898190E002C08FEF9FEF0F90DF91CF9113
:1006300008958F929F92AF92BF92CF92DF92EF92E6
:10064000FF920F931F930E948E0C0091DB0110917B
:10065000DC012091DD013091DE0106171707280724
:10066000390718F41092720050C0E091D501F09152
:10067000D60190818091D201892309F046C0109261
:1006800072000E948E0C2091D9013091DA0169012B
:10069000E12CF12C0091DB011091DC012091DD01B6
:1006A0003091DE0146015701801A910AA20AB30A6D
:1006B000950184010D50110921093109DC01CB019B
:1006C000800F911FA21FB31F8093CD019093CE0185
:1006D000A093CF01B093D00169E370E00E9443156D
:1006E000CB01A0E0B0E0672B41F48091EF01909145
:1006F000F001A091F101B091F2018093E301909398
:10070000E401A093E501B093E6011F910F91FF90E2
:10071000EF90DF90CF90BF90AF909F908F90089513
:100720000F931F93CF93DF93EC01888199810097FA
:1007300029F02A813B812617370788F48B016F5FE8
:100740007F4F0E949116009761F0998388831B83E5
:100750000A832C813D81232B11F4FC01108281E05E
:1007600001C080E0DF91CF911F910F910895CF9349
:10077000DF93EC0188819981009711F00E94F915AF
:10078000198218821D821C821B821A82DF91CF91EE
:1007900008951F920F920FB60F9211248F939F937B
:1007A0008091E1009091E100937F9093E10083FFBD
:1007B0000FC01092E90091E09093EB001092EC00D2
:1007C00092E39093ED001092690198E09093F0000D
:1007D00082FF20C093E09093E9009091F20099236A
:1007E00019F09AE39093E80090914001992339F031
:1007F00090914001915090934001992389F19091FB
:100800006801992339F090916801915090936801A3
:10081000992341F184FF10C08091E2008E7E8160B7
:100820008093E2008091E1008F7E8093E1008091CF
:1008300042018E7E806111C080FF16C08091E2006F
:100840008E7E80618093E2008091E1008E7E8093B5
:10085000E100809142018E7E81608093420104C05C
:100860005D98CDCF2898D6CF9F918F910F900FBED6
:100870000F901F9018951F920F920FB60F92112490
:10088000CF92DF92EF92FF920F931F932F933F939C
:100890004F935F936F937F938F939F93AF93BF9388
:1008A000EF93FF93CF93DF93CDB7DEB76C97DEBFA7
:1008B000CDBF1092E9008091E80083FFEDC168E0B0
:1008C000CE0145960E94A50182EF8093E8008D89B4
:1008D00087FF05C09091E80090FFFCCF03C09EEF1A
:1008E0009093E800982F907609F0C6C09E892F89D2
:1008F000188D91110CC0803829F4809143018093A8
:10090000F10002C01092F1001092F10048C1422F94
:1009100050E0512B913051F4811141C141305105CA
:1009200009F03DC1809143018D7F0BC0933061F48C
:10093000811135C14130510509F031C18091430128
:100940008260809343012BC1953041F48091E8008F
:1009500080FFFCCF20682093E30021C1963009F08E
:100960005FC0EB8CFC8C1092E90010923F0110925A
:100970003E01123091F510923D0110923C010E940F
:100980001C0299E0BE016F5F7F4FDB01E92F1D92D2
:10099000EA95E9F799831A8391E09E8390EA988714
:1009A0009AEF998720913E0130913F01275F3F4F99
:1009B0003C832B838D831092E90010923F011092AB
:1009C0003E01F0923D01E0923C0149E050E080E0C0
:1009D0000E947E010E941C02E2C0F0923D01E09262
:1009E0003C010E94200BDC011296ED90FC901397C5
:1009F000E114F10409F4C0C0D701ED91FC91048029
:100A0000F581E02DBE016B5E7F4FC7010995009710
:100A100019F00CF0C4C0C7C0F701E084F184E8CF3E
:100A2000973009F4C0C0983021F481E08093F10040
:100A3000B6C0993009F0B3C0837009F0B4C0E7E1E3
:100A4000F1E081E021E036E39081992361F0809329
:100A5000E9002093EB0091919093EC003093ED002E
:100A60008F5F873089F78EE78093EA001092EA0063
:100A70008F898093690193C08B8D9C8D1092E900C2
:100A800010923F0110923E0190933D0180933C01F2
:100A9000898D811156C08E899D89913A59F4813290
:100AA00009F081C047E050E064E071E080E00E941E
:100AB0007E0175C0913209F076C0833289F4888D49
:100AC00090E0982F88272F89822BA0E0B0E08093B8
:100AD000000190930101A0930201B09303015FC054
:100AE000803269F48091E80082FFFCCF67E084E007
:100AF00091E00E94A5018BEF8093E80006C082324E
:100B000009F04DC08F8980930B01809141018823AA
:100B100019F0EEEFFAE002C0E0E0F8E080910401A5
:100B200090910501A0910601B0910701803B94408E
:100B3000A105B10509F07BC080910B0180FF93C036
:100B400076C00E94200BDC0112960D911C91139728
:100B50000115110541F1D801ED91FC910190F08151
:100B6000E02DBE016B5E7F4FC8010995811117C052
:100B7000F80100851185ECCF113009F44EC0133017
:100B800091F48F89882309F445C0823081F440E8CC
:100B90006DE08EE291E00E944101882321F08EEF0A
:100BA0008093E80079C081E28093EB0075C08130CA
:100BB00029F440E86BE082E291E0EDCF833099F7D1
:100BC0000E94200BDC011296ED90FC9013978E0191
:100BD0000F5F1F4F6801E114F10479F0D701ED9127
:100BE000FC910680F781E02DB801C7010995080F37
:100BF000111DF701E084F184EECFD8011C92F601BB
:100C000001900020E9F73197BF016C197D0940E0A0
:100C1000C601C1CF6CE071E002C060E171E0611516
:100C2000710509F2FB01449150E080E840CF0FB616
:100C3000F894A8958091600088618093600010927C
:100C400060000FBEA895EE3F2AE0F20739F08091D0
:100C5000FE0A9091FF0A91838083A1CF1092FF0A30
:100C60001092FE0A9CCFEE3F8AE0F80731F08081B7
:100C700091819093FF0A8093FE0A87E797E791831B
:100C800080839BE088E10FB6F894A895809360007C
:100C90000FBE9093600083CF6C960FB6F894DEBFC2
:100CA0000FBECDBFDF91CF91FF91EF91BF91AF917B
:100CB0009F918F917F916F915F914F913F912F9174
:100CC0001F910F91FF90EF90DF90CF900F900FBE8C
:100CD0000F901F9018951F920F920FB60F9211242C
:100CE0002F933F934F935F936F937F938F939F9334
:100CF000AF93BF93EF93FF93E0913A01F0913B01E3
:100D00000995FF91EF91BF91AF919F918F917F9145
:100D10006F915F914F913F912F910F900FBE0F9068
:100D20001F901895FC0190819C3080F5818128E806
:100D300030E0281B310987FD3395220F331F220F26
:100D4000331F621773077CF0828128E532E0281B8D
:100D5000310987FD3395220F331F220F331F62178E
:100D600073070CF49B0122503109220F331F4FB738
:100D7000F894892F90E0FC01EE0FFF1F8E0F9F1F4C
:100D8000FC01EC5BFE4F328321834FBF0895DF925D
:100D9000EF92FF920F931F93CF93DF93EC01D62E28
:100DA0007A01890188818C3008F06AC061E08D2D5C
:100DB0000E94970B8881E82FF0E09F01220F331FDC
:100DC000E20FF31FEC5BFE4F9D2D9F732081207C73
:100DD000D22ED92AD08260E272E0AB014E195F09AF
:100DE00057FF02C04D5F5F4F559547955595479505
:100DF000498340E659E09A01201B310B37FF02C0BE
:100E00002D5F3F4F35952795359527952A836CE0C3
:100E10000E9437159CE0899FB001112440E050E00A
:100E20009A01260F371FF901EE0FFF1F2E0F3F1FEC
:100E3000F901EC5BFE4F908196FD16C04F5F5F4F4E
:100E40004C30510569F781110FC01092800082E08B
:100E5000809381001092850010928400B19A809155
:100E60006F00826080936F00E881F0E0CF01880F0F
:100E7000991FE80FF91FEC5BFE4F8081806480832F
:100E80008881DF91CF911F910F91FF90EF90DF90BC
:100E90000895FC01909139019C30A0F481E0890F04
:100EA000809339019083892F90E0FC01EE0FFF1FA2
:100EB0008E0F9F1FFC01EC5BFE4F88EB9BE0928343
:100EC000818308958FEF808308951F920F920FB64C
:100ED0000F9211242F933F934F935F936F937F93C0
:100EE0008F939F93AF93BF93EF93FF9380913801BC
:100EF00087FF05C010928500109284001BC02091CE
:100F00003801022E000C330B8091390190E0281734
:100F1000390784F480913801082E000C990BFC01EC
:100F2000EE0FFF1F8E0F9F1FFC01EC5BFE4F8081B9
:100F300086FD15C0809138018F5F80933801209124
:100F40003801022E000C330B8091390190E02817F4
:100F50003907C4F4809138018C3064F113C080915A
:100F60003801082E000C990BFC01EE0FFF1F8E0FAD
:100F70009F1FFC01EC5BFE4F808160E08F730E943D
:100F8000340BD8CF809184009091850004968034F2
:100F90009C4918F480E49CE905C0809184009091FC
:100FA0008500049690938900809388008FEF80934A
:100FB00038013BC020918400309185008091380138
:100FC000082E000C990BFC01EE0FFF1F8E0F9F1FC8
:100FD000FC01EC5BFE4F81819281820F931F909305
:100FE00089008093880080913801082E000C990BAD
:100FF000FC01EE0FFF1F8E0F9F1FFC01EC5BFE4FED
:10100000808186FF12C080913801082E000C990B58
:10101000FC01EE0FFF1F8E0F9F1FFC01EC5BFE4FCC
:10102000808161E08F730E94340BFF91EF91BF913B
:10103000AF919F918F917F916F915F914F913F9170
:101040002F910F900FBE0F901F9018958F929F9227
:10105000AF92BF92CF92DF92EF92FF920F931F93C6
:10106000CF93DF931F92CDB7DEB78B01BC01990FF1
:10107000880B990B0E947F1220E030E040E850E49A
:101080000E9412146B017C0120E030E048EC52E435
:101090000E94BA124B015C01B801110F880B990B29
:1010A0000E947F1220E030E040E850E40E941214D9
:1010B0009B01AC01C701B6010E9413149B01AC0156
:1010C000C501B4010E947F140E94F114162F612FF4
:1010D00084E6811B79830E942B0A22E030E0309362
:1010E000BF012093BE01812F99810F90DF91CF9195
:1010F0001F910F91FF90EF90DF90CF90BF90AF9036
:101100009F908F9008950F931F938FB7F8944091FD
:101110006A0150916B0160916C0170916D018FBFFC
:101120008091DF019091E001A091E101B091E20195
:10113000481759076A077B0708F4D7C02FB7F894F8
:1011400080916A0190916B01A0916C01B0916D0149
:101150002FBF8896A11DB11D8093DF019093E00100
:10116000A093E101B093E201109272008091EF012F
:101170009091F001009789F0019649E3489F900112
:10118000499F300D11242E388FE6380710F02DE8D6
:101190003FE63093DA012093D901E091D701F09135
:1011A000D80190818091D101892B8083E091D30176
:1011B000F091D40190818091D10180958923808321
:1011C0008BE090E00197F1F7E091D301F091D40129
:1011D00090818091D101892B808383E290E00197F7
:1011E000F1F7E091D301F091D40190818091D10188
:1011F000809589238083E091D701F091D801908177
:101200008091D101809589238083E091D501F0916F
:10121000D60190818091D201892309F066C00E9495
:101220008E0C2091D9013091DA01890120E030E063
:101230000855194E2F4F3F4FDC01CB01800F911FF6
:10124000A21FB31F8093DB019093DC01A093DD010B
:10125000B093DE01E091D501F091D60190818091AB
:10126000D201892381F40E948E0C0091DB01109140
:10127000DC012091DD013091DE01061717072807F8
:10128000390740F732C00E948E0C2091D90130916D
:10129000DA01DC01CB01820F931FA11DB11D8093E8
:1012A000DB019093DC01A093DD01B093DE0189E1C5
:1012B00093E090933B0180933A0110927200109258
:1012C000C4001092C3001092C2001092C00087E4C4
:1012D0008093C10084E089BB1092BF001092BE00D1
:1012E00095E09093D1008093720088EF91E00E9486
:1012F000FE0B82E292E00E94FE0B8DE092E01F91D5
:101300000F910C94FE0B0E945B17CF92DF92EF922D
:10131000FF920F931F93CF93DF93CDB7DEB72E9736
:101320000FB6F894DEBF0FBECDBF8C01CB01BA0162
:101330002AE0AE014F5F5F4F6A010E943C12F60146
:1013400001900020E9F73197EC19FD09D8011496B6
:10135000ED90FC9015973097D9F0EE0EFF1EB70177
:10136000C8010E949003882381F0F8012081318117
:1013700084819581B601820F931F0E946917D8015D
:101380001596FC92EE92149703C0C8010E94B70311
:10139000C8012E960FB6F894DEBF0FBECDBFDF9109
:1013A000CF911F910F91FF90EF90DF90CF90089514
:1013B000EF92FF920F931F93CF93DF93EC01FB010A
:1013C00084819581E080F1800C811D81E114F1041C
:1013D000B1F00097B9F0080F191FB801CE010E94B3
:1013E0009003882361F0288139818C819D81B70128
:1013F000820F931F0E9469171D830C8303C0CE01C7
:101400000E94B703CE01DF91CF911F910F91FF9002
:10141000EF900895EF92FF920F931F93CF93DF9376
:10142000EC017B018A01BA010E949003811104C082
:10143000CE010E94B70307C01D830C83B7018881CA
:1014400099810E946917CE01DF91CF911F910F9171
:10145000FF90EF900895CF92DF92EF92FF920F935B
:101460001F93CF93DF93C82FD62F8091C00190E0B8
:101470002091C5013091C601280F391F4091C30149
:101480005091C401481B590B6091C10170E087EC79
:1014900091E00E94C7068091C00190E02091C301B5
:1014A0003091C401280F391F4091C5015091C601E8
:1014B000481B590B6091C20170E08AEC91E00E94D8
:1014C000C7060091C3011091C401C195E090C0010D
:1014D000AC2F0C2E000CBB0BB7FF03C0B195A19530
:1014E000B109F12C97010E945D1524E630E040E03F
:1014F00050E00E947813C901C7FF04C088279927CC
:10150000821B930B080F191FC090C501D090C60114
:10151000AD2F0D2E000CBB0BB7FF03C0B195A195ED
:10152000B10997010E945D1524E630E040E050E0EB
:101530000E947813C901D7FF04C088279927821B0E
:10154000930BE601C80FD91FB80187EC91E00E9408
:101550009206BE018AEC91E0DF91CF911F910F912D
:10156000FF90EF90DF90CF900C949206682F0E942E
:101570002B0A1092BF011092BE01089540912202E1
:1015800050912302609124027091250280910D02F6
:1015900090910E02A0910F02B091100248175907C6
:1015A0006A077B0714F08FEF01C081E090E5899F07
:1015B000802D1124682F61950E942B0A81E090E014
:1015C0009093BF018093BE010895FC018091690151
:1015D000811103C08FEF9FEF08959FB7F89482E0C9
:1015E0008093E9002091F20030E01216130614F403
:1015F00021E030E02115310559F0289A84E68093E6
:1016000068018091F10080838091F200882319F0B5
:101610009FBFC90108958BE68093E800F9CF2FB7EB
:10162000F89483E08093E9009091E800892F80721C
:1016300095FF04C09091F20080E4891B2FBF0895AC
:101640008091400281110DC082E080933C0284E0D1
:1016500080933D0210923F0210923E0281E08093FF
:1016600040028CE392E00895362F90E0FC01E85BA5
:10167000FE4F4491FC01E055FE4F2491FC01EF56D2
:10168000FE4F8491882309F451C04423E1F150E0D6
:10169000FA013197EF30F105B0F5EA5AFF4F0C949B
:1016A0005715909180009F7707C0909180009F7D93
:1016B00003C090918000977F9093800024C094B5E0
:1016C0009F7702C094B59F7D94BD1DC090919000FE
:1016D0009F7707C0909190009F7D03C090919000EC
:1016E000977F909390000FC09091C0009F7703C0A8
:1016F0009091C0009F7D9093C00005C09091C20062
:10170000977F9093C200E82FF0E0EE0FFF1FED5798
:10171000FE4FA591B4918FB7F894EC91311103C0AD
:1017200020952E2301C02E2B2C938FBF0895CF938D
:10173000DF9390E0FC01E055FE4F2491FC01EF5651
:10174000FE4F8491882361F190E0880F991FFC017E
:10175000E959FE4FC591D491FC01ED57FE4FA5917B
:10176000B491611109C09FB7F894888120958223B4
:101770008883EC912E230BC0623061F49FB7F894FC
:101780003881822F809583238883EC912E2B2C9394
:101790009FBF06C08FB7F894E8812E2B28838FBF98
:1017A000DF91CF910895823108F08251E82FF0E067
:1017B000E45CFE4FE49180917B00E3FB222720F95B
:1017C00030E095E0220F331F9A95E1F78F7D282BAB
:1017D00020937B00E770E064E0937C0080917A00C6
:1017E000806480937A0080917A0086FDFCCF80919E
:1017F00078002091790090E0922B08954F925F92AB
:101800006F927F928F929F92AF92BF92CF92DF9210
:10181000EF92FF920F931F93CF93DF9300D000D0EE
:10182000CDB7DEB72FB7F894C0906A01D0906B01A6
:10183000E0906C01F0906D012FBFDC0151964D914D
:101840005D916D917C915497C416D506E606F70616
:1018500008F44FC08C014C5E5F4F6F4F7F4FFC010F
:10186000418B528B638B748B41855285CA01550F16
:10187000AA0BBB0B89839A83AB83BC83C384D484B8
:101880000D2C000CEE08FF0887809084092C000CBA
:10189000AA08BB0845805680052C000C660877080E
:1018A00084810E94D30B092E000CAA0BBB0B9C0158
:1018B000AD01241935094609570969817A818B815F
:1018C0009C816C197D098E099F090E942715A5012D
:1018D000940124193509460957090E947813C20E4C
:1018E000D31EE41EF51ED801CD92DD92ED92FC923E
:1018F00013970F900F900F900F90DF91CF911F9142
:101900000F91FF90EF90DF90CF90BF90AF909F909E
:101910008F907F906F905F904F9008953FB7F894AD
:101920008091380290913902A0913A02B0913B0225
:1019300026B5A89B05C02F3F19F00196A11DB11D2A
:101940003FBFBA2FA92F982F8827820F911DA11D65
:10195000B11DBC01CD0142E0660F771F881F991FA2
:101960004A95D1F708958F929F92AF92BF92CF92EE
:10197000DF92EF92FF926B017C010E948E0C4B0173
:101980005C01C114D104E104F104F1F00E948E0C59
:10199000DC01CB0188199909AA09BB09883E93404B
:1019A000A105B10570F321E0C21AD108E108F108E0
:1019B00088EE880E83E0981EA11CB11CC114D104CE
:1019C000E104F10419F7DDCFFF90EF90DF90CF90A5
:1019D000BF90AF909F908F9008951F920F920FB677
:1019E0000F9211242F933F938F939F93AF93BF93A5
:1019F00080916A0190916B01A0916C01B0916D0191
:101A00003091370223E0230F2D3720F40196A11DDA
:101A1000B11D05C026E8230F0296A11DB11D20931C
:101A2000370280936A0190936B01A0936C01B0938D
:101A30006D018091380290913902A0913A02B091E3
:101A40003B020196A11DB11D80933802909339028B
:101A5000A0933A02B0933B02BF91AF919F918F91B7
:101A60003F912F910F900FBE0F901F901895CF931D
:101A7000DF93CDB7DEB7E4970FB6F894DEBF0FBEA5
:101A8000CDBF789484B5826084BD84B5816084BD07
:101A900085B5826085BD85B5816085BD80916E000C
:101AA000816080936E00109281008091810082603D
:101AB000809381008091810081608093810080917A
:101AC000800081608093800080919100826080938B
:101AD00091008091910081608093910080919000AD
:101AE0008160809390008091C10084608093C100E8
:101AF0008091C10082608093C1008091C1008160AB
:101B00008093C1008091C30081608093C300809165
:101B1000C00082608093C0008091C2008160809389
:101B2000C20080917A00846080937A0080917A006C
:101B3000826080937A0080917A00816080937A003D
:101B400080917A00806880937A00109269011092E7
:101B50004301109242018091D70081608093D700A9
:101B600080EA8093D80089B5806189BD89B582609B
:101B700089BD09B400FEFDCF61E070E080E090E037
:101B80000E94B30C8091D8008F7C80618093D80034
:101B90008091E000807F8093E0008091E1008E7E64
:101BA0008093E1008DE08093E200559A209A5D9841
:101BB0002898EEEFFFE7859194918B3F9C4D19F4A7
:101BC00081E0809341018FEF9FEF90937B018093A1
:101BD0007A0180E00E94D30BBC01990F880B990B0E
:101BE000611571058105910511F00E943312E09194
:101BF000C701F0E0CF01880F991FE80FF91FEC5BD8
:101C0000FE4F80818F7B8083E091CA01F0E0CF019D
:101C1000880F991FE80FF91FEC5BFE4F80818F7BC7
:101C2000808385E090E09093BF018093BE0120E621
:101C300039E040E252E06AE070E085EF91E00E9416
:101C4000C7068091F60128E830E06901C81AD1087A
:101C500087FDD394CC0CDD1CCC0CDD1C0D2C000CB2
:101C6000EE08FF088091F70128E532E0281B3109D2
:101C700087FD3395220F331F220F331FC901330F06
:101C8000AA0BBB0B9C01AD012C193D094E095F0944
:101C9000A4E6B0E00E94971324EB30E040E050E06F
:101CA0000E947813CA01B9016C0D7D1D8E1D9F1D08
:101CB00085EF91E00E94920668EE73E080E090E08C
:101CC0000E94B30C8E010F5F1F4F60E0262E60E074
:101CD000362E0E948308C090E301D090E401E0908A
:101CE000E501F090E6014091E7015091E801609133
:101CF000E9017091EA014C155D056E057F050CF454
:101D0000DCC080912F0290913002092E000CAA0BAA
:101D1000BB0B4090220250902302609024027090EE
:101D2000250284159505A605B7050CF4C6C080915B
:101D30001A0290911B02092E000CAA0BBB0B4090BB
:101D40000D0250900E0260900F02709010028415E8
:101D50009505A605B7050CF4B0C060EB80EB0E94BA
:101D60002B0A84E090E09093BF018093BE01C09065
:101D70000D02D0900E02E0900F02F09010021CA213
:101D80001BA21EA21DA218A61FA241E050E06FE2F6
:101D900071E0CE0183960E940A0A4090E3015090C0
:101DA000E4016090E5017090E6011AA619A61CA650
:101DB0001BA61EA61DA641E050E06FE271E0CE0119
:101DC00089960E940A0A60912202709123028091F2
:101DD00024029091250218AA1FA61AAA19AA1CAAC1
:101DE0001BAA2AE0A8010E943C12F80101900020E1
:101DF000E9F73197AF01401B510BB801CE018F9627
:101E00000E940A0ABE01675D7F4FCE018F960E9435
:101E1000D809B301A2010E948509BE016D5D7F4F03
:101E20000E94D809B701A6010E9485091A82198269
:101E30001C821B821E821D820817190759F0FC01A3
:101E4000608171816115710529F044815581C80156
:101E50000E940A0A8FA598A90E94F91589A59AA53A
:101E60000E94F9158BA19CA10E94F915E0916E01C9
:101E7000F0916F014D815E8169817A810280F381E9
:101E8000E02D8EE691E00995E0916E01F0916F01F1
:101E90000280F381E02D42E050E061E371E08EE6E4
:101EA00091E0099589819A810E94F91521143104E4
:101EB00009F40FCF0E9400000CCF4090EB0150902E
:101EC000EC016090ED017090EE014C145D046E0425
:101ED0007F045CF580911C0290911D02092E000C7C
:101EE000AA0BBB0B80900D0290900E02A0900F02E7
:101EF000B090100288159905AA05BB05B4F480912D
:101F0000310290913202092E000CAA0BBB0B80907B
:101F1000220290902302A0902402B09025028815FE
:101F20009905AA05BB050CF45EC08091BE01909195
:101F3000BF018130910509F45AC00CF060C0892BB3
:101F400009F051C04C155D056E057F050CF05FC0B2
:101F50008091220290912302A0912402B091250247
:101F600040912F0250913002052E000C660B770B2A
:101F7000481759076A077B070CF065C040910D02AE
:101F800050910E0260910F027091100220911A027E
:101F900030911B024901330FAA08BB08841695062D
:101FA000A606B7060CF04FC02091310230913202E4
:101FB0004901330FAA08BB0888169906AA06BB0672
:101FC0004CF520911C0230911D024901330FAA08E3
:101FD000BB0884169506A606B706E4F44C145D0407
:101FE0006E047F0454F484E60E94B60AC0CE4C15F9
:101FF0005D056E057F050CF0BACE80E5F5CF823029
:102000009105E9F54C155D056E057F053CF00E94D4
:10201000BE0AADCEBA010E942608A9CE8091220246
:1020200090912302A0912402B091250240913102A7
:1020300050913202052E000C660B770B481759079A
:102040006A077B072CF060910D0270910E02E3CFBE
:1020500040911C0250911D02052E000C660B770B5F
:10206000C0900D02D0900E02E0900F02F09010028E
:102070004C155D056E057F050CF479CEE4CF049711
:1020800009F0B1CF4C155D056E057F050CF06FCEE4
:102090000E94BE0A64EF71E080E090E00E94B30C01
:1020A00066CE4F925F926F927F92AF92BF92CF9225
:1020B000DF92EF92FF920F931F93CF93DF931092D3
:1020C00071011092700188EE93E0A0E0B0E080937F
:1020D000720190937301A0937401B093750181E232
:1020E00091E090936F0180936E018FEF9FEF90933B
:1020F0007B0180937A018EE1482E512C612C712C4A
:102100004092220250922302609224027092250291
:1021100093E0A92EB12CB0922802A092270224E0CD
:10212000C22ED12CD0922C02C0922B023EE1E32E83
:10213000F12CF0922E02E0922D02109233021092B6
:102140003402109235021092360282E18093260208
:1021500008E512E010932A0200932902C9E1D0E0B9
:10216000D0933002C0932F02D0933202C093310239
:1021700060E00E94970B40920D0250920E02609216
:102180000F0270921002B0921302A0921202D0922B
:102190001702C0921602F0921902E09218021092F1
:1021A0001E0210921F02109220021092210284E15E
:1021B000809311021093150200931402D0931B0216
:1021C000C0931A02D0931D02C0931C0260E00E94CB
:1021D000970B4092F8015092F9016092FA017092C7
:1021E000FB01B092FE01A092FD01D0920202C092CA
:1021F0000102F0920402E09203021092090210928E
:102200000A0210920B0210920C0283E18093FC01EF
:10221000109300020093FF01D0930602C0930502C1
:1022200082E390E0909308028093070260E083E1EC
:102230000E94970B85EF91E00E944907E5EBF1E0E2
:10224000E491E093D101E6EBF1E0E491E093D20177
:1022500086E991E0FC012491E22FF0E0EE0FFF1FF0
:10226000ED57FE4F259134913093D4012093D30143
:10227000E7E9F1E0E491F0E0EE0FFF1FEB58FE4FCD
:10228000259134913093D6012093D501FC0184919E
:10229000E82FF0E0EE0FFF1FE959FE4F8591949172
:1022A0009093D8018093D7018DE89FE69093DA014F
:1022B0008093D9011092DF011092E0011092E101A8
:1022C0001092E20184EF91E0A0E0B0E08093E3019E
:1022D0009093E401A093E501B093E6018093EF01B0
:1022E0009093F001A093F101B093F20185E0809307
:1022F000F30186E08093F40189E190E0A0E0B0E092
:102300008093E7019093E801A093E901B093EA017B
:1023100082E390E0A0E0B0E08093EB019093EC01C9
:10232000A093ED01B093EE0185E090E09093BF01A2
:102330008093BE0187EC91E00E9449078AEC91E00E
:102340000E9449078BE08093C1018CE08093C20119
:1023500089E096E09093C4018093C3019093C601F5
:102360008093C5018CED8093C00180E00E94D30B67
:10237000BC01990F880B990B6115710581059105B9
:1023800081F0DF91CF911F910F91FF90EF90DF903F
:10239000CF90BF90AF907F906F905F904F900C94D4
:1023A0003312DF91CF911F910F91FF90EF90DF904B
:1023B000CF90BF90AF907F906F905F904F900895B7
:1023C0008F929F92AF92BF92CF92DF92EF92FF9245
:1023D000CF93DF93EC01688179818A819B816115BC
:1023E00071058105910521F464E279ED8BE597E0B3
:1023F0002DE133EF41E050E00E94781349015A018A
:102400009B01AC01A7EAB1E40E9497136B017C0128
:10241000ACEEB4EFA50194010E94A513DC01CB0141
:102420008C0D9D1DAE1DBF1DB7FF03C00197A109F7
:10243000B04888839983AA83BB83BC01CD019F7771
:10244000DF91CF91FF90EF90DF90CF90BF90AF9052
:102450009F908F9008950E94E01108958CE091E084
:102460000E94E011089560930C0170930D01809318
:102470000E0190930F010895BB272A3051F4992340
:1024800042F4BDE290958095709561957F4F8F4F96
:102490009F4F0C944C12BB27FA01A62F62177105AF
:1024A00081059105330B30FB66F0AA27660F771F75
:1024B000881F991FAA1FA21710F0A21B63953850FE
:1024C000A9F7A05DAA3308F0A95DA19336F7B11171
:1024D000B1931082CA010C946D12DC01FC01672FCC
:1024E00071917723E1F7329704C07C916D937083EB
:1024F0006291AE17BF07C8F30895E89409C097FB2F
:102500003EF490958095709561957F4F8F4F9F4FCA
:102510009923A9F0F92F96E9BB279395F69587950E
:1025200077956795B795F111F8CFFAF4BB0F11F4D1
:1025300060FF1BC06F5F7F4F8F4F9F4F16C0882378
:1025400011F096E911C0772321F09EE8872F762FAE
:1025500005C0662371F096E8862F70E060E02AF0EF
:102560009A95660F771F881FDAF7880F96958795DB
:1025700097F908950E94CD120C943E130E943013D7
:1025800038F00E94371320F0952311F00C94271394
:102590000C942D1311240C9472130E944F1370F39A
:1025A000959FC1F3950F50E0551F629FF001729FF8
:1025B000BB27F00DB11D639FAA27F00DB11DAA1F07
:1025C000649F6627B00DA11D661F829F2227B00D54
:1025D000A11D621F739FB00DA11D621F839FA00DDF
:1025E000611D221F749F3327A00D611D231F849F2F
:1025F000600D211D822F762F6A2F11249F57504086
:102600009AF0F1F088234AF0EE0FFF1FBB1F661F00
:10261000771F881F91505040A9F79E3F510580F0C9
:102620000C9427130C9472135F3FE4F3983ED4F399
:10263000869577956795B795F795E7959F5FC1F76D
:10264000FE2B880F911D9695879597F9089597F918
:102650009F6780E870E060E008959FEF80EC089548
:1026600000240A9416161706180609060895002471
:102670000A9412161306140605060895092E0394EB
:10268000000C11F4882352F0BB0F40F4BF2B11F45F
:1026900060FF04C06F5F7F4F8F4F9F4F089557FDBE
:1026A0009058440F551F59F05F3F71F04795880FC0
:1026B00097FB991F61F09F3F79F087950895121657
:1026C00013061406551FF2CF4695F1DF08C0161603
:1026D00017061806991FF1CF8695710561050894B4
:1026E0000895E894BB2766277727CB0197F90895CB
:1026F000052E97FB1EF400940E948F1357FD07D000
:102700000E94E11307FC03D04EF40C948F135095F4
:102710004095309521953F4F4F4F5F4F08959095CD
:102720008095709561957F4F8F4F9F4F08950E94C0
:102730000314A59F900DB49F900DA49F800D911D33
:1027400011240895B7FF0C9497130E949713821BCE
:10275000930B08952F923F924F925F926F927F92C8
:102760008F929F92AF92BF92CF92DF92EF92FF92A1
:102770000F931F93CF93DF93CDB7DEB7CA1BDB0B4D
:102780000FB6F894DEBF0FBECDBF09942A883988F2
:1027900048885F846E847D848C849B84AA84B984F9
:1027A000C884DF80EE80FD800C811B81AA81B98105
:1027B000CE0FD11D0FB6F894DEBF0FBECDBFED0119
:1027C0000895A1E21A2EAA1BBB1BFD010DC0AA1F72
:1027D000BB1FEE1FFF1FA217B307E407F50720F08A
:1027E000A21BB30BE40BF50B661F771F881F991F05
:1027F0001A9469F760957095809590959B01AC014E
:10280000BD01CF010895A29FB001B39FC001A39F56
:10281000700D811D1124911DB29F700D811D112419
:10282000911D08955058BB27AA270E942A140C9482
:102830003E130E94301338F00E94371320F039F411
:102840009F3F19F426F40C942D130EF4E095E7FB4A
:102850000C942713E92F0E944F1358F3BA176207FD
:1028600073078407950720F079F4A6F50C9471138B
:102870000EF4E0950B2EBA2FA02D0B01B90190019B
:102880000C01CA01A0011124FF27591B99F0593FDF
:1028900050F4503E68F11A16F040A22F232F342F27
:1028A0004427585FF3CF469537952795A795F04075
:1028B0005395C9F77EF41F16BA0B620B730B840B8A
:1028C000BAF09150A1F0FF0FBB1F661F771F881F42
:1028D000C2F70EC0BA0F621F731F841F48F487959A
:1028E00077956795B795F7959E3F08F0B0CF93958C
:1028F000880F08F09927EE0F9795879508950E9405
:1029000093140C943E130E94371358F00E94301316
:1029100040F029F45F3F29F00C94271351110C94D7
:1029200072130C942D130E944F1368F39923B1F383
:10293000552391F3951B550BBB27AA2762177307E5
:10294000840738F09F5F5F4F220F331F441FAA1F79
:10295000A9F335D00E2E3AF0E0E832D09150504035
:10296000E695001CCAF72BD0FE2F29D0660F771FE3
:10297000881FBB1F261737074807AB07B0E809F0C9
:10298000BB0B802DBF01FF2793585F4F3AF09E3F4E
:10299000510578F00C9427130C9472135F3FE4F305
:1029A000983ED4F3869577956795B795F7959F5F91
:1029B000C9F7880F911D9695879597F90895E1E0DD
:1029C000660F771F881FBB1F621773078407BA073C
:1029D00020F0621B730B840BBA0BEE1F88F7E09597
:1029E00008950E94F8146894B1110C94721308951C
:1029F0000E94571388F09F5798F0B92F9927B75125
:102A0000B0F0E1F0660F771F881F991F1AF0BA9592
:102A1000C9F714C0B13091F00E947113B1E008956C
:102A20000C947113672F782F8827B85F39F0B93F5E
:102A3000CCF3869577956795B395D9F73EF4909545
:102A40008095709561957F4F8F4F9F4F0895DB0163
:102A50008F939F930E949713BF91AF91A29F800D78
:102A6000911DA39F900DB29F900D11240895991B65
:102A700079E004C0991F961708F0961B881F7A9575
:102A8000C9F780950895AA1BBB1B51E107C0AA1F77
:102A9000BB1FA617B70710F0A61BB70B881F991FFF
:102AA0005A95A9F780959095BC01CD010895EE0F38
:102AB000FF1F0590F491E02D09940E940314B7FFC5
:102AC0000895821B930B0895CF93DF938230910575
:102AD00010F482E090E0E0914A02F0914B0220E095
:102AE00030E0C0E0D0E0309711F1408151814817CB
:102AF0005907C0F04817590761F4828193812097E4
:102B000019F09B838A832BC090934B0280934A02D7
:102B100026C02115310519F04217530718F49A0100
:102B2000BE01DF01EF010280F381E02DDCCF211532
:102B3000310509F1281B390B2430310590F4129628
:102B40008D919C9113976115710521F0FB01938381
:102B5000828304C090934B0280934A02FD01329617
:102B600044C0FD01E20FF31F81939193225031097C
:102B70002D933C933AC02091480230914902232B77
:102B800041F42091120130911301309349022093B6
:102B9000480220911001309111012115310541F4B5
:102BA0002DB73EB74091140150911501241B350BF0
:102BB000E0914802F0914902E217F307A0F42E1BBE
:102BC0003F0B2817390778F0AC014E5F5F4F241791
:102BD000350748F04E0F5F1F50934902409348025B
:102BE0008193919302C0E0E0F0E0CF01DF91CF91BB
:102BF00008950F931F93CF93DF93009709F48CC030
:102C0000FC0132971382128200914A0210914B020A
:102C10000115110581F420813181820F931F2091CC
:102C20004802309149022817390779F5F093490293
:102C3000E093480271C0D80140E050E0AE17BF07F2
:102C400050F412962D913C911397AD012115310549
:102C500009F1D901F3CF9D01DA0133832283608129
:102C60007181860F971F8217930769F4EC01288101
:102C70003981260F371F2E5F3F4F318320838A8192
:102C80009B8193838283452B29F4F0934B02E0933D
:102C90004A0242C01396FC93EE931297ED014991BC
:102CA00059919E01240F351FE217F30771F48081BB
:102CB0009181840F951F029611969C938E93828129
:102CC000938113969C938E931297E0E0F0E0D801E5
:102CD00012968D919C911397009719F0F8018C0131
:102CE000F6CF8D919C9198012E5F3F4F820F931FDD
:102CF00020914802309149022817390769F430972A
:102D000029F410924B0210924A0202C013821282DE
:102D10001093490200934802DF91CF911F910F91C8
:102D20000895A0E0B0E0E7E9F6E10C94AE13EC0101
:102D3000009721F4CB010E946415B8C0FC01E60F96
:102D4000F71F9C0122503109E217F30708F4ACC0C9
:102D5000D9010D911C91119706171707B0F0053096
:102D6000110508F49FC0C80104978617970708F457
:102D700099C002501109061B170B019311936D9313
:102D80007C93CF010E94F9158DC05B01A01AB10A96
:102D90004C01800E911EA0914A02B0914B0240E07E
:102DA00050E0E12CF12C109709F44AC0A815B905A0
:102DB000D1F56D907C901197630182E0C80ED11C13
:102DC000CA14DB0480F1A3014A195B096A0182E09D
:102DD000C80ED11C1296BC9012971396AC91B5E018
:102DE000CB16D10440F0B282A38351834083D90132
:102DF0006D937C930AC00E5F1F4FC301800F911F1C
:102E0000F90191838083EB2DFA2FE114F10431F065
:102E1000D7011396FC93EE93129744C0F0934B02A4
:102E2000E0934A023FC08D919C9111974817590732
:102E300008F4AC017D0112960D90BC91A02DB3CF8A
:102E4000809148029091490288159905E1F446174E
:102E50005707C8F48091100190911101009741F437
:102E60008DB79EB74091140150911501841B950BAD
:102E7000E817F907C8F4F0934902E0934802F90112
:102E8000718360830FC0CB010E9464157C010097A1
:102E900059F0A801BE010E946017CE010E94F915E9
:102EA000C70104C0CE0102C080E090E0CDB7DEB71C
:102EB000EEE00C94CA1381E090E0F8940C94701743
:102EC000FB01DC0102C001900D9241505040D8F747
:102ED0000895FB01DC0101900D920020E1F70895B7
:042EE000F894FFCF94
:102EE400FFFFFFFF00E10000000000000100000000
:102EF40000004C02800000C180810000000000003E
:102F040000DD014E02D302F301FE01FB02D7023AB7
:042F1400000D0A00A2
:00000001FF
