:100000000C94EA000C9412010C9412010C9412014D
:100010000C9412010C9412010C9412010C94120114
:100020000C9412010C9412010C94FE040C947005B3
:100030000C9412010C9412010C9412010C941201F4
:100040000C9412010C949A080C9412010C94120155
:100050000C9412010C9412010C9412010C94300DAA
:100060000C9412010C9412010C9412010C941201C4
:100070000C9412010C9412010C9412010C941201B4
:100080000C9412010C9412010C9412010C941201A4
:100090000C9412010C9412010C9412010C94120194
:1000A0000C9412010C94A0070C941201320C350C24
:1000B000240C280C2C0C560C560C560C390C3D0CF0
:1000C000410C470C4B0C560C510C080B0002020261
:1000D00001000904000001020200000524001001D3
:1000E0000524010101042402060524060001070578
:1000F000810310004009040100020A000000070506
:1001000002024000000705830240000004030904C6
:1001100012010002EF020140412337800001010279
:10012000030141726475696E6F204C4C430041724B
:100130006475696E6F204D6963726F000706050470
:100140000100080A0B0C0D090000000200090F0055
:1001500000030401000C000000000000000000008B
:100160000000000000000000000000240027002A1A
:10017000002D003000000000002300260029002C84
:10018000002F0000000000250028002B002E003169
:10019000000404040404030405020202020403022E
:1001A000020202060606060606040402020204040F
:1001B0000408020110408040102040804080080266
:1001C00004018040201002011080102040402000D7
:1001D000C30F7A0D11241FBECFEFDAE0DEBFCDBF13
:1001E00011E0A0E0B1E0EEE0FEE202C005900D9269
:1001F000A235B107D9F722E0A2E5B1E001C01D9216
:10020000A736B207E1F710E0C9EED0E004C02197AD
:10021000FE010E94E114C83ED107C9F70E947B0D80
:100220000C94FA160C94000040915C0150915D0111
:1002300020915A0130915B0142175307B4F4909119
:10024000E8009570E1F39091E80092FD19C0809369
:10025000F10080915C0190915D0101968F73992767
:10026000892B19F48EEF8093E80080915C019091C6
:100270005D01019690935D0180935C0181E008959A
:1002800080E00895CF92DF92EF92FF920F931F9339
:10029000CF93DF931F92CDB7DEB7182F062FE42E32
:1002A000862F880F8E5F99830E94140183E00E943D
:1002B0001401F12EC12E9981D92E8C2D8F19801702
:1002C00098F4F601E7FE02C0849101C080810E948B
:1002D0001401182F80E00E9414018123FFEFCF1A30
:1002E000DF0A8111EACF01C081E00F90DF91CF9149
:1002F0001F910F91FF90EF90DF90CF900895DF92C4
:10030000EF92FF920F931F93CF93DF93D82E8A0122
:100310007B01E40EF51EEB01CE15DF0571F0D7FE73
:1003200003C0FE01849101C088810E9414012196BE
:100330008111F2CF8FEF9FEF01C0C801DF91CF9104
:100340001F910F91FF90EF90DF900895615030F072
:100350002091F100FC0120830196F8CF289A84E6D1
:10036000809386010895CF92DF92EF92FF920F93D0
:100370001F93CF93DF936C017A018B01C0E0D0E033
:10038000CE15DF0589F0D8016D918D01D601ED9173
:10039000FC910190F081E02DC6010995892B11F4A3
:1003A0007E0102C02196ECCFC701DF91CF911F9152
:1003B0000F91FF90EF90DF90CF900895CF93DF9350
:1003C0001F92CDB7DEB76983DC01ED91FC9102800D
:1003D000F381E02D41E050E0BE016F5F7F4F099552
:1003E0000F90DF91CF91089583E08093E900809191
:1003F000F200882319F08AE38093E8000895FC0155
:100400008485958597FD0BC09FB7F89482E0809313
:10041000E9008091F2009FBF90E0019608959FB798
:10042000F89482E08093E9008091F2009FBF90E011
:100430000895089580E090E008950C9483150C943D
:1004400083150F931F93CF93DF931F92CDB7DEB722
:1004500082E0898342E450E06AEC70E080E80E9428
:100460007F010E94F30BDC0112960D911C911397F2
:100470000115110569F0D801ED91FC910280F3811D
:10048000E02DBE016F5F7F4FC801099597FF07C040
:1004900089810F90DF91CF911F910F910895F801FD
:1004A00000851185E5CF8F929F92AF92BF92CF9238
:1004B000DF92EF92FF920F931F93CF93DF935C0134
:1004C0006B017A0180910B01882309F45BC0809154
:1004D0008701882309F456C08091600180FF05C020
:1004E0008091E00082608093E000E70110E00AEF75
:1004F00083E0882E9AE3992E2097D9F10E94E20B8F
:1005000081110AC0015009F43DC061E070E080E053
:1005100090E00E94F60CF0CF282F30E0C217D307EE
:100520000CF48C2F4FB7F8948092E9009091E8007A
:1005300095FF1DC0282F30E0C21BD30BF601982F6A
:10054000915020F081918093F100FACFC20ED31E1A
:10055000112319F09092E80009C08091E80085FD10
:1005600006C09092E80011E0209709F010E04FBF1C
:10057000C3CF1111C3CF5D9A84E680935E011E1430
:100580001F0444F081E090E0F5019383828380E0D2
:1005900090E001C0C701DF91CF911F910F91FF90B3
:1005A000EF90DF90CF90BF90AF909F908F90089585
:1005B0000E94E20B90E00895CF93DF931F92CDB796
:1005C000DEB7FC018485958597FD05C02FEF3FEFD1
:1005D000358724870BC0CE0101960E94B80B019786
:1005E00019F4898190E002C08FEF9FEF0F90DF91A7
:1005F000CF9108950F931F93CF93DF931F92CDB7A1
:10060000DEB78C01FC018485958597FF0EC0CE0175
:1006100001960E94B80B019719F4298130E002C0BD
:100620002FEF3FEFF80135872487F8018485958502
:100630000F90DF91CF911F910F9108950F931F930A
:10064000CF93DF93FC01A285B3859C918481892B94
:100650008C93A681B7819C918481809589238C930A
:100660008BE090E00197F1F7A681B7819C9184819E
:10067000892B8C9383E290E00197F1F7A681B781F3
:100680009C918481809589238C93A285B3859C91CC
:100690008481809589238C93A085B1859C918581E7
:1006A000892311F080E037C0EF010E94D10C2C8526
:1006B0003D85890120E030E00855194E2F4F3F4F0E
:1006C000DC01CB01800F911FA21FB31F8E879F8774
:1006D000A88BB98BE885F98590818D81892361F498
:1006E0000E94D10C0E851F852889398906171707A6
:1006F0002807390778F7D6CF0E94D10C2C853D8585
:10070000DC01CB01820F931FA11DB11D8E879F8736
:10071000A88BB98B81E0DF91CF911F910F91089544
:100720008F929F92AF92BF92CF92DF92EF92FF9201
:100730000F931F930E94D10C0091090210910A029D
:1007400020910B0230910C02061717072807390772
:1007500018F41092720045C0E0910302F091040277
:100760009081809100028923E1F5109272000E942D
:10077000D10C20910702309108026901E12CF12C83
:100780000091090210910A0220910B0230910C0293
:1007900046015701801A910AA20AB30A9501840101
:1007A0000D50110921093109DC01CB01800F911F86
:1007B000A21FB31F8093FB019093FC01A093FD0146
:1007C000B093FE0169E370E00E94CD1461157105DC
:1007D00021F46091EF017091F0017093F601609344
:1007E000F5011F910F91FF90EF90DF90CF90BF9098
:1007F000AF909F908F9008950F931F93CF93DF93A7
:10080000EC012C813D8140962115310581F02F5F4F
:100810003F4F69E3629FA001639F500D11244E3842
:100820002FE6520710F04DE85FE65D8F4C8F0E9477
:100830001E0381110EC060E070E01DC00E94D10C4B
:100840000E8D1F8D28A139A1061717072807390714
:1008500090F3E88DF98D90818D89892379F70E9435
:10086000D10C2C8D3D8D255031094E8D5F8D241B73
:10087000350B620F731F80E090E029E330E040E029
:1008800050E00E946B13211531054105510511F40B
:100890002C813D813B872A87DF91CF911F910F915A
:1008A00008954F925F926F927F928F929F92AF9234
:1008B000BF92CF92DF92EF92FF920F931F93CF934D
:1008C000DF9300D000D0CDB7DEB78C01DC011296EB
:1008D0004D915C911397CA01A0E0B0E089839A839F
:1008E000AB83BC83D8011496CD90DC901597E12C96
:1008F000F12C53968D909C905497092C000CAA08CB
:10090000BB0851964D905C905297052C000C6608E0
:10091000770850968C910E94A60C092E000CAA0B09
:10092000BB0B9C01AD0124193509460957096981A2
:100930007A818B819C816C197D098E099F090E94A7
:10094000B114A501940124193509460957090E94DB
:100950000213C20ED31EE41EF51EF801D386C28612
:100960000F900F900F900F90DF91CF911F910F91EB
:10097000FF90EF90DF90CF90BF90AF909F908F90BF
:100980007F906F905F904F9008950F931F93CF9338
:10099000DF93EC0188819981009729F02A813B81BE
:1009A0002617370788F48B016F5F7F4F0E941B1655
:1009B000009761F0998388831B830A832C813D8192
:1009C000232B11F4FC01108281E001C080E0DF9153
:1009D000CF911F910F910895CF93DF93EC01888100
:1009E0009981009711F00E948315198218821D8247
:1009F0001C821B821A82DF91CF9108951F920F9261
:100A00000FB60F9211248F939F938091E1009091E4
:100A1000E100937F9093E10083FF0FC01092E90003
:100A200091E09093EB001092EC0092E39093ED0034
:100A30001092870198E09093F00082FF20C093E02D
:100A40009093E9009091F200992319F09AE3909322
:100A5000E80090915E01992339F090915E019150E8
:100A600090935E01992389F190918601992339F041
:100A700090918601915090938601992341F184FFD2
:100A800010C08091E2008E7E81608093E2008091B0
:100A9000E1008F7E8093E100809160018E7E806115
:100AA00011C080FF16C08091E2008E7E806180932D
:100AB000E2008091E1008E7E8093E10080916001F0
:100AC0008E7E81608093600104C05D98CDCF2898B0
:100AD000D6CF9F918F910F900FBE0F901F901895BA
:100AE0001F920F920FB60F921124CF92DF92EF92C6
:100AF000FF920F931F932F933F934F935F936F93A7
:100B00007F938F939F93AF93BF93EF93FF93CF9375
:100B1000DF93CDB7DEB76C97DEBFCDBF1092E90093
:100B20008091E80083FFEDC168E0CE0145960E9408
:100B3000A60182EF8093E8008D8987FF05C0909120
:100B4000E80090FFFCCF03C09EEF9093E800982F41
:100B5000907609F0C6C09E892F89188D91110CC01E
:100B6000803829F4809161018093F10002C01092D5
:100B7000F1001092F10048C1422F50E0512B91300A
:100B800051F4811141C14130510509F03DC18091BD
:100B900061018D7F0BC0933061F4811135C141300B
:100BA000510509F031C1809161018260809361013A
:100BB0002BC1953041F48091E80080FFFCCF206884
:100BC0002093E30021C1963009F05FC0EB8CFC8CD0
:100BD0001092E90010925D0110925C01123091F5C3
:100BE00010925B0110925A010E94210299E0BE010D
:100BF0006F5F7F4FDB01E92F1D92EA95E9F799833B
:100C00001A8391E09E8390EA98879AEF99872091C2
:100C10005C0130915D01275F3F4F3C832B838D83C7
:100C20001092E90010925D0110925C01F0925B015C
:100C3000E0925A0149E050E080E00E947F010E946A
:100C40002102E2C0F0925B01E0925A010E94F30B94
:100C5000DC011296ED90FC901397E114F10409F475
:100C6000C0C0D701ED91FC910480F581E02DBE015B
:100C70006B5E7F4FC7010995009719F00CF0C4C057
:100C8000C7C0F701E084F184E8CF973009F4C0C011
:100C9000983021F481E08093F100B6C0993009F0DA
:100CA000B3C0837009F0B4C0E7E1F1E081E021E076
:100CB00036E39081992361F08093E9002093EB0063
:100CC00091919093EC003093ED008F5F873089F71E
:100CD0008EE78093EA001092EA008F898093870163
:100CE00093C08B8D9C8D1092E90010925D01109243
:100CF0005C0190935B0180935A01898D811156C0EC
:100D00008E899D89913A59F4813209F081C047E07A
:100D100050E064E071E080E00E947F0175C0913294
:100D200009F076C0833289F4888D90E0982F882767
:100D30002F89822BA0E0B0E0809300019093010105
:100D4000A0930201B09303015FC0803269F48091E7
:100D5000E80082FFFCCF67E084E091E00E94A601FA
:100D60008BEF8093E80006C0823209F04DC08F8976
:100D700080930B0180915F01882319F0EEEFFAE078
:100D800002C0E0E0F8E08091040190910501A0919B
:100D90000601B0910701803B9440A105B10509F01F
:100DA0007BC080910B0180FF93C076C00E94F30B43
:100DB000DC0112960D911C9113970115110541F15B
:100DC000D801ED91FC910190F081E02DBE016B5EA8
:100DD0007F4FC8010995811117C0F8010085118561
:100DE000ECCF113009F44EC0133091F48F89882371
:100DF00009F445C0823081F440E86DE08EE291E074
:100E00000E944201882321F08EEF8093E80079C090
:100E100081E28093EB0075C0813029F440E86BE0FB
:100E200082E291E0EDCF833099F70E94F30BDC0171
:100E30001296ED90FC9013978E010F5F1F4F680183
:100E4000E114F10479F0D701ED91FC910680F7816E
:100E5000E02DB801C7010995080F111DF701E084C5
:100E6000F184EECFD8011C92F60101900020E9F741
:100E70003197BF016C197D0940E0C601C1CF6CE01C
:100E800071E002C060E171E06115710509F2FB01DA
:100E9000449150E080E840CF0FB6F894A895809137
:100EA0006000886180936000109260000FBEA8957A
:100EB000EE3F2AE0F20739F08091FE0A9091FF0A96
:100EC00091838083A1CF1092FF0A1092FE0A9CCFDB
:100ED000EE3F8AE0F80731F0808191819093FF0A1C
:100EE0008093FE0A87E797E7918380839BE088E100
:100EF0000FB6F894A895809360000FBE90936000A1
:100F000083CF6C960FB6F894DEBF0FBECDBFDF91D6
:100F1000CF91FF91EF91BF91AF919F918F917F9171
:100F20006F915F914F913F912F911F910F91FF9082
:100F3000EF90DF90CF900F900FBE0F901F901895FD
:100F40001F920F920FB60F9211242F933F934F933E
:100F50005F936F937F938F939F93AF93BF93EF9321
:100F6000FF93E0915801F09159010995FF91EF919C
:100F7000BF91AF919F918F917F916F915F914F91B1
:100F80003F912F910F900FBE0F901F901895FC016D
:100F900090819C3080F5818128E830E0281B310960
:100FA00087FD3395220F331F220F331F62177307FC
:100FB0007CF0828128E532E0281B310987FD3395DA
:100FC000220F331F220F331F621773070CF49B018C
:100FD00022503109220F331F4FB7F894892F90E028
:100FE000FC01EE0FFF1F8E0F9F1FFC01EE59FE4FFD
:100FF000328321834FBF0895DF92EF92FF920F93C8
:101000001F93CF93DF93EC01D62E7A01890188815B
:101010008C3008F06AC061E08D2D0E946A0C8881D6
:10102000E82FF0E09F01220F331FE20FF31FEE596C
:10103000FE4F9D2D9F732081207CD22ED92AD082F5
:1010400060E272E0AB014E195F0957FF02C04D5FCD
:101050005F4F5595479555954795498340E659E02B
:101060009A01201B310B37FF02C02D5F3F4F359592
:101070002795359527952A836CE00E94C1149CE042
:10108000899FB001112440E050E09A01260F371FDC
:10109000F901EE0FFF1F2E0F3F1FF901EE59FE4F12
:1010A000908196FD16C04F5F5F4F4C30510569F738
:1010B00081110FC01092800082E080938100109215
:1010C000850010928400B19A80916F0082608093B5
:1010D0006F00E881F0E0CF01880F991FE80FF91F3A
:1010E000EE59FE4F8081806480838881DF91CF91AB
:1010F0001F910F91FF90EF90DF900895FC01909168
:1011000057019C30A0F481E0890F809357019083B0
:10111000892F90E0FC01EE0FFF1F8E0F9F1FFC0137
:10112000EE59FE4F88EB9BE09283818308958FEF09
:10113000808308951F920F920FB60F9211242F9360
:101140003F934F935F936F937F938F939F93AF934F
:10115000BF93EF93FF938091560187FF05C01092D4
:101160008500109284001BC020915601022E000CB5
:10117000330B8091570190E02817390784F4809150
:101180005601082E000C990BFC01EE0FFF1F8E0F6D
:101190009F1FFC01EE59FE4F808186FD15C0809196
:1011A00056018F5F8093560120915601022E000C4C
:1011B000330B8091570190E028173907C4F48091D0
:1011C00056018C3064F113C080915601082E000C3A
:1011D000990BFC01EE0FFF1F8E0F9F1FFC01EE59B4
:1011E000FE4F808160E08F730E94070CD8CF809102
:1011F000840090918500049680349C4918F480E422
:101200009CE905C08091840090918500049690939C
:101210008900809388008FEF809356013BC0209116
:1012200084003091850080915601082E000C990BA6
:10123000FC01EE0FFF1F8E0F9F1FFC01EE59FE4FAA
:1012400081819281820F931F9093890080938800FF
:1012500080915601082E000C990BFC01EE0FFF1F28
:101260008E0F9F1FFC01EE59FE4F808186FF12C03A
:1012700080915601082E000C990BFC01EE0FFF1F08
:101280008E0F9F1FFC01EE59FE4F808161E08F732E
:101290000E94070CFF91EF91BF91AF919F918F91A9
:1012A0007F916F915F914F913F912F910F900FBE62
:1012B0000F901F901895089508958F929F92AF9266
:1012C000BF92CF92DF92EF92FF920F931F93CF9333
:1012D000DF931F92CDB7DEB78B01BC01990F880B4E
:1012E000990B0E94091220E030E040E850E40E948F
:1012F0009C136B017C0120E030E048EC52E40E943A
:1013000044124B015C01B801110F880B990B0E942C
:10131000091220E030E040E850E40E949C139B0159
:10132000AC01C701B6010E949D139B01AC01C50130
:10133000B4010E9409140E947B14162F612F84E6C9
:10134000811B79830E94080B22E030E03093DD019D
:101350002093DC01812F99810F90DF91CF911F9114
:101360000F91FF90EF90DF90CF90BF90AF909F9044
:101370008F9008958FB7F89440918801509189011A
:1013800060918A0170918B018FBF8091F7019091DC
:10139000F801A091F901B091FA01481759076A07BD
:1013A0007B0708F453C02FB7F8948091880190917F
:1013B0008901A0918A01B0918B012FBF4496A11D94
:1013C000B11D8093F7019093F801A093F901B093B8
:1013D000FA01109272008091EF019091F001009754
:1013E00089F0019649E3489F9001499F300D1124EF
:1013F0002E388FE6380710F02DE83FE630930802CC
:10140000209307028BEF91E00E941E038823F1F0E6
:1014100080E993E0909359018093580110927200F3
:101420001092C4001092C3001092C2001092C0002B
:1014300087E48093C10084E089BB1092BF001092C2
:10144000BE0095E09093D1008093720083E192E01A
:101450000E94DA0A8DE392E00E94DA0A88E292E0C2
:101460000C94DA0A0E94E516CF92DF92EF92FF9277
:101470000F931F93CF93DF93CDB7DEB727970FB6A8
:10148000F894DEBF0FBECDBF8C01CB014AE09E01B8
:101490002F5F3F4F6901B9010E94DD11F6010190F4
:1014A0000020E9F73197EC19FD09D8011496ED9069
:1014B000FC9015973097D9F0EE0EFF1EB701C801CA
:1014C0000E94C504882381F0F80120813181848144
:1014D0009581B601820F931F0E94F316D8011596CD
:1014E000FC92EE92149703C0C8010E94EC04C8015C
:1014F00027960FB6F894DEBF0FBECDBFDF91CF9118
:101500001F910F91FF90EF90DF90CF900895EF9291
:10151000FF920F931F93CF93DF93EC01FB01848124
:101520009581E080F1800C811D81E114F104B1F01E
:101530000097B9F0080F191FB801CE010E94C50429
:10154000882361F0288139818C819D81B701820FC8
:10155000931F0E94F3161D830C8303C0CE010E94CB
:10156000EC04CE01DF91CF911F910F91FF90EF908E
:101570000895EF92FF920F931F93CF93DF93EC01A7
:101580007B018A01BA010E94C504811104C0CE0109
:101590000E94EC0407C01D830C83B70188819981E8
:1015A0000E94F316CE01DF91CF911F910F91FF9012
:1015B000EF9008950F931F934FB7F894009188010F
:1015C0001091890120918A0130918B014FBFDC017C
:1015D0001C964D915D916D917C911F970417150795
:1015E0002607370790F0415F5F4F6F4F7F4FFC0139
:1015F00044875587668777870190F081E02D0480C6
:10160000F581E02D1F910F9109941F910F9108957D
:10161000CF92DF92EF92FF920F931F93CF93DF93BE
:10162000C82FD62F8091DE0190E02091E301309108
:10163000E401280F391F4091E1015091E201481B5C
:10164000590B6091DF0170E085EE91E00E94FC078C
:101650008091DE0190E02091E1013091E201280FBC
:10166000391F4091E3015091E401481B590B6091EF
:10167000E00170E088EE91E00E94FC070091E1013A
:101680001091E201C195E090DE01AC2F0C2E000C10
:10169000BB0BB7FF03C0B195A195B109F12C970120
:1016A0000E94E71424E630E040E050E00E9402137C
:1016B000C901C7FF04C088279927821B930B080F15
:1016C000191FC090E301D090E401AD2F0D2E000C46
:1016D000BB0BB7FF03C0B195A195B10997010E945B
:1016E000E71424E630E040E050E00E940213C90114
:1016F000D7FF04C088279927821B930BE601C80FE8
:10170000D91FB80185EE91E00E94C707BE0188EE9F
:1017100091E0DF91CF911F910F91FF90EF90DF90BB
:10172000CF900C94C707682F0E94080B1092DD0120
:101730001092DC0108952091470230914802809177
:101740003202909133022817390710F08FEF01C051
:1017500081E090E5899F802D1124682F61950E947A
:10176000080B81E090E09093DD018093DC01089507
:10177000FC0180918701811103C08FEF9FEF0895D5
:101780009FB7F89482E08093E9002091F20030E066
:101790001216130614F421E030E02115310559F03A
:1017A000289A84E6809386018091F100808380915D
:1017B000F200882319F09FBFC90108958BE680933A
:1017C000E800F9CF2FB7F89483E08093E900909177
:1017D000E800892F807295FF04C09091F20080E4A8
:1017E000891B2FBF089580915B0281110DC082E09B
:1017F0008093570284E08093580210925A0210920C
:10180000590281E080935B0287E592E00895362FCC
:1018100090E0FC01E85BFE4F4491FC01E055FE4F77
:101820002491FC01EF56FE4F8491882309F451C0A6
:101830004423E1F150E0FA013197EF30F105B0F5C2
:10184000EA5AFF4F0C94E114909180009F7707C0F3
:10185000909180009F7D03C090918000977F90932E
:10186000800024C094B59F7702C094B59F7D94BD3D
:101870001DC0909190009F7707C0909190009F7D30
:1018800003C090919000977F909390000FC090912B
:10189000C0009F7703C09091C0009F7D9093C000CF
:1018A00005C09091C200977F9093C200E82FF0E0AE
:1018B000EE0FFF1FED57FE4FA591B4918FB7F8942F
:1018C000EC91311103C020952E2301C02E2B2C93B7
:1018D0008FBF0895CF93DF9390E0FC01E055FE4F5A
:1018E0002491FC01EF56FE4F8491882361F190E032
:1018F000880F991FFC01E959FE4FC591D491FC0155
:10190000ED57FE4FA591B491611109C09FB7F894AE
:101910008881209582238883EC912E230BC062302E
:1019200061F49FB7F8943881822F80958323888350
:10193000EC912E2B2C939FBF06C08FB7F894E881B3
:101940002E2B28838FBFDF91CF910895823108F02D
:101950008251E82FF0E0E45CFE4FE49180917B003F
:10196000E3FB222720F930E095E0220F331F9A9500
:10197000E1F78F7D282B20937B00E770E064E093F4
:101980007C0080917A00806480937A0080917A0054
:1019900086FDFCCF809178002091790090E0922B19
:1019A00008953FB7F8948091530290915402A0910A
:1019B0005502B091560226B5A89B05C02F3F19F0DD
:1019C0000196A11DB11D3FBFBA2FA92F982F8827BF
:1019D000820F911DA11DB11DBC01CD0142E0660F1A
:1019E000771F881F991F4A95D1F708958F929F926C
:1019F000AF92BF92CF92DF92EF92FF926B017C0188
:101A00000E94D10C4B015C01C114D104E104F1042A
:101A1000F1F00E94D10CDC01CB0188199909AA09C7
:101A2000BB09883E9340A105B10570F321E0C21ABD
:101A3000D108E108F10888EE880E83E0981EA11C09
:101A4000B11CC114D104E104F10419F7DDCFFF90FA
:101A5000EF90DF90CF90BF90AF909F908F900895C0
:101A60001F920F920FB60F9211242F933F938F93D3
:101A70009F93AF93BF938091880190918901A0912A
:101A80008A01B0918B013091520223E0230F2D3750
:101A900020F40196A11DB11D05C026E8230F029672
:101AA000A11DB11D2093520280938801909389015A
:101AB000A0938A01B0938B018091530290915402BC
:101AC000A0915502B09156020196A11DB11D8093BF
:101AD000530290935402A0935502B0935602BF91C3
:101AE000AF919F918F913F912F910F900FBE0F90CB
:101AF0001F9018950895CF93DF93CDB7DEB7A397C6
:101B00000FB6F894DEBF0FBECDBF789484B5826067
:101B100084BD84B5816084BD85B5826085BD85B591
:101B2000816085BD80916E00816080936E0010920F
:101B3000810080918100826080938100809181008A
:101B4000816080938100809180008160809380001B
:101B500080919100826080939100809191008160DA
:101B6000809391008091900081608093900080919B
:101B7000C10084608093C1008091C1008260809325
:101B8000C1008091C10081608093C1008091C30039
:101B900081608093C3008091C00082608093C00008
:101BA0008091C20081608093C20080917A0084603D
:101BB00080937A0080917A00826080937A0080918D
:101BC0007A00816080937A0080917A0080688093A7
:101BD0007A00109287011092610110926001809149
:101BE000D70081608093D70080EA8093D80089B5C0
:101BF000806189BD89B5826089BD09B400FEFDCFD1
:101C000061E070E080E090E00E94F60C8091D800E6
:101C10008F7C80618093D8008091E000807F8093EA
:101C2000E0008091E1008E7E8093E1008DE0809362
:101C3000E200559A209A5D982898EEEFFFE785918B
:101C400094918B3F9C4D19F481E080935F018FEF5D
:101C50009FEF909399018093980180E00E94A60CD9
:101C6000BC01990F880B990B6115710581059105D0
:101C700011F00E94D411E091E501F0E0CF01880F4E
:101C8000991FE80FF91FEE59FE4F80818F7B8083EB
:101C9000E091E801F0E0CF01880F991FE80FF91FEC
:101CA000EE59FE4F80818F7B808385E090E090939A
:101CB000DD018093DC0168EE73E080E090E00E943B
:101CC000F60C8E010F5F1F4F40E0E42E40E0F42E33
:101CD00054E0C52ED12C0E94BA092091F501309113
:101CE000F6014091F1015091F2014217530708F4B7
:101CF000B8C0609147027091480280914302909170
:101D000044028617970708F4ACC0609132027091C4
:101D1000330280912E0290912F028617970708F4C4
:101D2000A0C060EB80EB0E94080BD092DD01C09256
:101D3000DC01A0903202B09033021B8A1A8A1D8AFD
:101D40001C8A1F8A1E8A41E050E06DE471E0CE01DA
:101D500042960E94B90A8090F5019090F601198E82
:101D6000188E1B8E1A8E1D8E1C8E41E050E06DE485
:101D700071E0CE0148960E94B90A80914702909185
:101D800048021F8E1E8E19A218A21BA21AA24AE098
:101D9000B8010E94DD11F80101900020E9F73197A8
:101DA000AF01401B510BB801CE014E960E94B90AFB
:101DB000BE01685E7F4FCE014E960E94870AB40135
:101DC0000E94340ABE016E5E7F4F0E94870AB501F1
:101DD0000E94340A1A8219821C821B821E821D8272
:101DE0000817190759F0FC016081718161157105AF
:101DF00029F044815581C8010E94B90A8E8D9F8DBA
:101E00000E948315888D998D0E9483158A899B89EC
:101E10000E948315E0918C01F0918D014D815E81CE
:101E200069817A810280F381E02D8CE891E0099547
:101E3000E0918C01F0918D010280F381E02D42E070
:101E400050E06FE471E08CE891E0099589819A8116
:101E50000E948315E114F10409F43DCF0E940000B3
:101E60003ACFE091F301F091F401E217F307B0F4F7
:101E70006091320270913302809130029091310270
:101E80008617970758F46091470270914802809135
:101E900045029091460286179707A0F18091DC01D8
:101EA0009091DD018130910589F1B4F5892B51F5CF
:101EB00042175307B8F5809147029091480240912C
:101EC00043025091440248175907D0F560913202FD
:101ED0007091330240912E0250912F0246175707FE
:101EE00078F540914502509146024817590760F530
:101EF00040913002509131024617570728F5E217FA
:101F0000F30740F484E60E94930B13CF4217530764
:101F100008F00FCF80E5F7CF8230910529F5421701
:101F2000530718F00E949B0B04CF809147029091B9
:101F3000480220914502309146022817390738F0AF
:101F400060913202709133020E945D09F2CE40919D
:101F50003202509133022091300230913102241725
:101F6000350708F4E6CEECCF049761F64217530725
:101F700008F0DFCE0E949B0B64EF71E080E090E000
:101F80000E94F60CD6CE8F929F92AF92BF92CF92C4
:101F9000DF92EF92FF920F931F93CF93DF931092F4
:101FA0008F0110928E0188EE93E0A0E0B0E0809364
:101FB000900190939101A0939201B093930181E2DB
:101FC00091E090938D0180938C018FEF9FEF909320
:101FD0009901809398011092490210924A0210923E
:101FE0004B0210924C0284E0882E912C9092400279
:101FF00080923F020EE110E01093420200934102F2
:1020000099E1E92EF12CF0924402E0924302F09221
:102010004602E092450210934802009347022DE3E6
:10202000A22E21E0B22EB0923E02A0923D0282E1A9
:1020300080934D0233E0C32ED12CD0924F02C09238
:102040004E02C8E5D2E0D0935102C093500260E046
:102050000E946A0C109234021092350210923602DD
:102060001092370290922B0280922A0210932D0236
:1020700000932C02F0922F02E0922E02F092310295
:10208000E09230021093330200933202B0922902A0
:10209000A092280284E180933802D0923A02C09242
:1020A0003902D0933C02C0933B0260E00E946A0C6C
:1020B00010921F021092200210922102109222020E
:1020C0009092160280921502109318020093170244
:1020D000F0921A02E092190242E3842E912C90921F
:1020E0001C0280921B0210931E0200931D02B092EC
:1020F0001402A092130283E180932302D09225025E
:10210000C0922402D0932702C093260260E00E946E
:102110006A0C1092F7011092F8011092F9011092D6
:10212000FA0105E010E01093EE010093ED0184EF59
:1021300091E09093F0018093EF01F092F201E09230
:10214000F1019092F4018092F3019093F601809353
:10215000F50183E391E09093EC018093EB01E5EBD3
:10216000F1E0E491E093FF01E6EBF1E0E491E0932C
:10217000000286E991E0FC012491E22FF0E0EE0FED
:10218000FF1FED57FE4F25913491309302022093AB
:102190000102E7E9F1E0E491F0E0EE0FFF1FEB58F8
:1021A000FE4F259134913093040220930302FC01E9
:1021B0008491E82FF0E0EE0FFF1FE959FE4F859163
:1021C000949190930602809305028DE89FE6909388
:1021D0000802809307028DE092E00E947E0887E06B
:1021E0008093100285E08093110286E080931202B2
:1021F00020E639E040E252E067E070E08DE092E0F6
:102200000E94FC0780910E0228E830E06901C81A9C
:10221000D10887FDD394CC0CDD1CCC0CDD1C0D2C1F
:10222000000CEE08FF0880910F02C81BD10987FD42
:10223000D395CC0FDD1FCC0FDD1FCE01DD0FAA0B18
:10224000BB0B9C01AD012C193D094E095F09AAE5A4
:10225000B0E00E94211324EB30E040E050E00E9407
:102260000213CA01B9016C0D7D1D8E1D9F1D8DE0ED
:1022700092E00E94C7071093DD010093DC0185EE18
:1022800091E00E947E0888EE91E00E947E088BE03B
:102290008093DF018CE08093E00189E096E09093E9
:1022A000E2018093E1019093E4018093E3018CEDDE
:1022B0008093DE0180E00E94A60CBC01990F880B80
:1022C000990B611571058105910571F0DF91CF9131
:1022D0001F910F91FF90EF90DF90CF90BF90AF9044
:1022E0009F908F900C94D411DF91CF911F910F91FB
:1022F000FF90EF90DF90CF90BF90AF909F908F9026
:1023000008958F929F92AF92BF92CF92DF92EF92F9
:10231000FF92CF93DF93EC01688179818A819B8161
:10232000611571058105910521F464E279ED8BE574
:1023300097E02DE133EF41E050E00E9402134901A4
:102340005A019B01AC01A7EAB1E40E9421136B0181
:102350007C01ACEEB4EFA50194010E942F13DC01C7
:10236000CB018C0D9D1DAE1DBF1DB7FF03C0019796
:10237000A109B04888839983AA83BB83BC01CD019E
:102380009F77DF91CF91FF90EF90DF90CF90BF903C
:10239000AF909F908F9008950E94811108958CE0D6
:1023A00091E00E948111089560930C0170930D01DA
:1023B00080930E0190930F010895BB27FB015527D1
:1023C000AA27880F991FAA1FA41710F0A41B839592
:1023D0005051B9F7A05DAA3308F0A95DA193009709
:1023E00079F7B111B1931192CB010C94F711DC0183
:1023F000FC01672F71917723E1F7329704C07C913C
:102400006D9370836291AE17BF07C8F30895E89487
:1024100009C097FB3EF490958095709561957F4F2C
:102420008F4F9F4F9923A9F0F92F96E9BB279395DA
:10243000F695879577956795B795F111F8CFFAF4EA
:10244000BB0F11F460FF1BC06F5F7F4F8F4F9F4F1B
:1024500016C0882311F096E911C0772321F09EE879
:10246000872F762F05C0662371F096E8862F70E0DF
:1024700060E02AF09A95660F771F881FDAF7880FB9
:102480009695879597F908950E9457120C94C81253
:102490000E94BA1238F00E94C11220F0952311F068
:1024A0000C94B1120C94B71211240C94FC120E94DB
:1024B000D91270F3959FC1F3950F50E0551F629F9D
:1024C000F001729FBB27F00DB11D639FAA27F00D8D
:1024D000B11DAA1F649F6627B00DA11D661F829FB4
:1024E0002227B00DA11D621F739FB00DA11D621F99
:1024F000839FA00D611D221F749F3327A00D611DB6
:10250000231F849F600D211D822F762F6A2F112497
:102510009F5750409AF0F1F088234AF0EE0FFF1FCA
:10252000BB1F661F771F881F91505040A9F79E3F21
:10253000510580F00C94B1120C94FC125F3FE4F34F
:10254000983ED4F3869577956795B795F795E79577
:102550009F5FC1F7FE2B880F911D9695879597F980
:10256000089597F99F6780E870E060E008959FEF15
:1025700080EC089500240A9416161706180609061A
:10258000089500240A9412161306140605060895E9
:10259000092E0394000C11F4882352F0BB0F40F471
:1025A000BF2B11F460FF04C06F5F7F4F8F4F9F4FB1
:1025B000089557FD9058440F551F59F05F3F71F033
:1025C0004795880F97FB991F61F09F3F79F087959A
:1025D0000895121613061406551FF2CF4695F1DF23
:1025E00008C0161617061806991FF1CF86957105B3
:1025F000610508940895E894BB2766277727CB01E7
:1026000097F90895052E97FB1EF400940E94191364
:1026100057FD07D00E946B1307FC03D04EF40C94B7
:10262000191350954095309521953F4F4F4F5F4F6F
:10263000089590958095709561957F4F8F4F9F4F2E
:1026400008950E948D13A59F900DB49F900DA49F97
:10265000800D911D11240895B7FF0C9421130E9441
:102660002113821B930B08952F923F924F925F92FA
:102670006F927F928F929F92AF92BF92CF92DF9292
:10268000EF92FF920F931F93CF93DF93CDB7DEB7F7
:10269000CA1BDB0B0FB6F894DEBF0FBECDBF09948B
:1026A0002A88398848885F846E847D848C849B84E2
:1026B000AA84B984C884DF80EE80FD800C811B81F0
:1026C000AA81B981CE0FD11D0FB6F894DEBF0FBE1F
:1026D000CDBFED010895A1E21A2EAA1BBB1BFD017F
:1026E0000DC0AA1FBB1FEE1FFF1FA217B307E407F1
:1026F000F50720F0A21BB30BE40BF50B661F771F49
:10270000881F991F1A9469F7609570958095909528
:102710009B01AC01BD01CF010895A29FB001B39F01
:10272000C001A39F700D811D1124911DB29F700DDA
:10273000811D1124911D08955058BB27AA270E947E
:10274000B4130C94C8120E94BA1238F00E94C1123D
:1027500020F039F49F3F19F426F40C94B7120EF4CC
:10276000E095E7FB0C94B112E92F0E94D91258F3BF
:10277000BA17620773078407950720F079F4A6F566
:102780000C94FB120EF4E0950B2EBA2FA02D0B012A
:10279000B90190010C01CA01A0011124FF27591BA6
:1027A00099F0593F50F4503E68F11A16F040A22FAC
:1027B000232F342F4427585FF3CF4695379527951D
:1027C000A795F0405395C9F77EF41F16BA0B620B1C
:1027D000730B840BBAF09150A1F0FF0FBB1F661F63
:1027E000771F881FC2F70EC0BA0F621F731F841FA6
:1027F00048F4879577956795B795F7959E3F08F0CC
:10280000B0CF9395880F08F09927EE0F979587958D
:1028100008950E941D140C94C8120E94C11258F011
:102820000E94BA1240F029F45F3F29F00C94B112D3
:1028300051110C94FC120C94B7120E94D91268F337
:102840009923B1F3552391F3951B550BBB27AA2769
:1028500062177307840738F09F5F5F4F220F331FA3
:10286000441FAA1FA9F335D00E2E3AF0E0E832D06B
:1028700091505040E695001CCAF72BD0FE2F29D06E
:10288000660F771F881FBB1F261737074807AB0740
:10289000B0E809F0BB0B802DBF01FF2793585F4FB5
:1028A0003AF09E3F510578F00C94B1120C94FC1252
:1028B0005F3FE4F3983ED4F3869577956795B79597
:1028C000F7959F5FC9F7880F911D9695879597F9A2
:1028D0000895E1E0660F771F881FBB1F621773071B
:1028E0008407BA0720F0621B730B840BBA0BEE1F30
:1028F00088F7E09508950E9482146894B1110C94B1
:10290000FC1208950E94E11288F09F5798F0B92FA9
:102910009927B751B0F0E1F0660F771F881F991F14
:102920001AF0BA95C9F714C0B13091F00E94FB12A9
:10293000B1E008950C94FB12672F782F8827B85FB9
:1029400039F0B93FCCF3869577956795B395D9F76C
:102950003EF490958095709561957F4F8F4F9F4F76
:102960000895DB018F939F930E942113BF91AF9134
:10297000A29F800D911DA39F900DB29F900D1124D9
:102980000895991B79E004C0991F961708F0961BCB
:10299000881F7A95C9F780950895AA1BBB1B51E142
:1029A00007C0AA1FBB1FA617B70710F0A61BB70BBF
:1029B000881F991F5A95A9F780959095BC01CD0164
:1029C0000895EE0FFF1F0590F491E02D09940E94E9
:1029D0008D13B7FF0895821B930B0895CF93DF9358
:1029E0008230910510F482E090E0E0916502F09170
:1029F000660220E030E0C0E0D0E0309711F1408185
:102A0000518148175907C0F04817590761F482816E
:102A10009381209719F09B838A832BC09093660241
:102A20008093650226C02115310519F0421753071E
:102A300018F49A01BE01DF01EF010280F381E02D5D
:102A4000DCCF2115310509F1281B390B2430310564
:102A500090F412968D919C9113976115710521F058
:102A6000FB019383828304C0909366028093650286
:102A7000FD01329644C0FD01E20FF31F8193919353
:102A8000225031092D933C933AC02091630230913A
:102A90006402232B41F420911201309113013093F1
:102AA00064022093630220911001309111012115DD
:102AB000310541F42DB73EB74091140150911501F5
:102AC000241B350BE0916302F0916402E217F307D7
:102AD000A0F42E1B3F0B2817390778F0AC014E5F8E
:102AE0005F4F2417350748F04E0F5F1F5093640265
:102AF000409363028193919302C0E0E0F0E0CF0144
:102B0000DF91CF9108950F931F93CF93DF93009799
:102B100009F48CC0FC013297138212820091650285
:102B2000109166020115110581F420813181820F17
:102B3000931F20916302309164022817390779F5B9
:102B4000F0936402E093630271C0D80140E050E06A
:102B5000AE17BF0750F412962D913C911397AD011B
:102B60002115310509F1D901F3CF9D01DA01338334
:102B7000228360817181860F971F8217930769F402
:102B8000EC0128813981260F371F2E5F3F4F31839B
:102B900020838A819B8193838283452B29F4F09340
:102BA0006602E093650242C01396FC93EE9312977F
:102BB000ED01499159919E01240F351FE217F3074A
:102BC00071F480819181840F951F029611969C93D8
:102BD0008E938281938113969C938E931297E0E05B
:102BE000F0E0D80112968D919C911397009719F0FF
:102BF000F8018C01F6CF8D919C9198012E5F3F4F8B
:102C0000820F931F209163023091640228173907C5
:102C100069F4309729F4109266021092650202C09E
:102C2000138212821093640200936302DF91CF91AA
:102C30001F910F910895A0E0B0E0E1E2F6E10C945D
:102C40003813EC01009721F4CB010E94EE14B8C0B8
:102C5000FC01E60FF71F9C0122503109E217F30730
:102C600008F4ACC0D9010D911C91119706171707F4
:102C7000B0F00530110508F49FC0C801049786170D
:102C8000970708F499C002501109061B170B01930E
:102C900011936D937C93CF010E9483158DC05B01CE
:102CA000A01AB10A4C01800E911EA0916502B0914C
:102CB000660240E050E0E12CF12C109709F44AC084
:102CC000A815B905D1F56D907C901197630182E04C
:102CD000C80ED11CCA14DB0480F1A3014A195B0998
:102CE0006A0182E0C80ED11C1296BC90129713960E
:102CF000AC91B5E0CB16D10440F0B282A3835183EE
:102D00004083D9016D937C930AC00E5F1F4FC301AE
:102D1000800F911FF90191838083EB2DFA2FE1142D
:102D2000F10431F0D7011396FC93EE93129744C04F
:102D3000F0936602E09365023FC08D919C911197DC
:102D40004817590708F4AC017D0112960D90BC910B
:102D5000A02DB3CF809163029091640288159905EC
:102D6000E1F446175707C8F48091100190911101C2
:102D7000009741F48DB79EB7409114015091150111
:102D8000841B950BE817F907C8F4F0936402E093ED
:102D90006302F901718360830FC0CB010E94EE14BE
:102DA0007C01009759F0A801BE010E94EA16CE01ED
:102DB0000E948315C70104C0CE0102C080E090E0EC
:102DC000CDB7DEB7EEE00C94541381E090E0F894B8
:102DD0000C94FA16FB01DC0102C001900D924150E7
:102DE0005040D8F70895FB01DC0101900D920020BE
:102DF000E1F7089510E0C9EED0E004C0FE010E94A2
:0E2E0000E1142196CA3ED107C9F7F894FFCF1E
:102E0E00FFFFFFFF00E100000000000001000000D6
:102E1E0000006702800000C18081000000000000F9
:102E2E0000DE015302D802F401FF01DC02FA0200B7
:102E3E000000005C091D02FC03000000005B091F7E
:102E4E000251040000000000000000320A3A000D9A
:022E5E000A0068
:00000001FF
