:100000000C9417010C943F010C943F010C943F0198
:100010000C943F010C943F010C943F010C943F0160
:100020000C943F010C943F010C942B050C949D05FE
:100030000C943F010C943F010C943F010C943F0140
:100040000C943F010C94C7080C943F010C943F01A1
:100050000C943F010C943F010C943F010C944F0B06
:100060000C943F010C943F010C943F010C943F0110
:100070000C943F010C943F010C943F010C943F0100
:100080000C943F010C943F010C943F010C943F01F0
:100090000C943F010C943F010C943F010C943F01E0
:1000A0000C943F010C94CD070C943F016B0E6E0E27
:1000B0005D0E610E650E8F0E8F0E8F0E720E760E18
:1000C0007A0E800E840E8F0E8A0E036EDB363D9AFA
:1000D0009999993DABAAAA2A3E000000803F072CBF
:1000E0007AA5BA6CC590DA3B9365FC8BBC53F810CB
:1000F000FD3C5692834DBD879D3AB63DCBC9BF5B53
:10010000BE73DA0FC93F05A84CCDB2D44EB938360C
:10011000A9020C50B9918688083CA6AAAA2ABE005A
:100120000000803F080B00020202010009040000E9
:100130000102020000052400100105240101010450
:10014000240206052406000107058103100040096A
:10015000040100020A000000070502024000000737
:100160000583024000000403090412010002EF02AB
:10017000014041233780000101020301417264758F
:10018000696E6F204C4C430041726475696E6F203C
:100190004D6963726F00070605040100080A0B0C25
:1001A0000D090000000200090F0000030401000C0B
:1001B000000000000000000000000000000000003F
:1001C0000000000000240027002A002D003000005D
:1001D0000000002300260029002C002F0000000052
:1001E00000250028002B002E003100040404040424
:1001F00003040502020202040302020202060606CA
:100200000606060404020202040404080201104067
:10021000804010204080408008020401804020106F
:10022000020110801020404020006213A50F11240D
:100230001FBECFEFDAE0DEBFCDBF11E0A0E0B1E03E
:10024000E2E8F9E302C005900D92AE3CB107D9F7A0
:1002500023E0AEECB1E001C01D92A833B207E1F794
:1002600011E0C6E1D1E004C02197FE010E949B1A73
:10027000C531D107C9F70E94A60F0C94B41C0C9489
:1002800000004091D8015091D9012091D6013091C0
:10029000D70142175307B4F49091E8009570E1F349
:1002A0009091E80092FD19C08093F1008091D801EF
:1002B0009091D90101968F739927892B19F48EEFAC
:1002C0008093E8008091D8019091D9010196909394
:1002D000D9018093D80181E0089580E00895CF92FC
:1002E000DF92EF92FF920F931F93CF93DF931F92B2
:1002F000CDB7DEB7182F062FE42E862F880F8E5F1E
:1003000099830E94410183E00E944101F12EC12E98
:100310009981D92E8C2D8F19801798F4F601E7FE5C
:1003200002C0849101C080810E944101182F80E0A9
:100330000E9441018123FFEFCF1ADF0A8111EACF2A
:1003400001C081E00F90DF91CF911F910F91FF903D
:10035000EF90DF90CF900895DF92EF92FF920F938E
:100360001F93CF93DF93D82E8A017B01E40EF51EF5
:10037000EB01CE15DF0571F0D7FE03C0FE018491BD
:1003800001C088810E94410121968111F2CF8FEF37
:100390009FEF01C0C801DF91CF911F910F91FF9096
:1003A000EF90DF900895615030F02091F100FC0152
:1003B00020830196F8CF289A84E680930702089557
:1003C000CF92DF92EF92FF920F931F93CF93DF9321
:1003D0006C017A018B01C0E0D0E0CE15DF0589F019
:1003E000D8016D918D01D601ED91FC910190F081C4
:1003F000E02DC6010995892B11F47E0102C02196DA
:10040000ECCFC701DF91CF911F910F91FF90EF903B
:10041000DF90CF900895CF93DF931F92CDB7DEB7D3
:100420006983DC01ED91FC910280F381E02D41E0D4
:1004300050E0BE016F5F7F4F09950F90DF91CF9124
:10044000089583E08093E9008091F200882319F0F9
:100450008AE38093E8000895FC018485958597FDE3
:100460000BC09FB7F89482E08093E9008091F2007E
:100470009FBF90E0019608959FB7F89482E0809323
:10048000E9008091F2009FBF90E00895089580E018
:1004900090E008950C943D1B0C943D1B0F931F930B
:1004A000CF93DF931F92CDB7DEB782E0898342E41A
:1004B00050E064E271E080E80E94AC010E942C0EE2
:1004C000DC0112960D911C9113970115110569F02D
:1004D000D801ED91FC910280F381E02DBE016F5FA8
:1004E0007F4FC801099597FF07C089810F90DF9161
:1004F000CF911F910F910895F80100851185E5CFE7
:100500008F929F92AF92BF92CF92DF92EF92FF9223
:100510000F931F93CF93DF935C016B017A0180915E
:100520000B01882309F45BC080910802882309F439
:1005300056C08091DC0180FF05C08091E0008260A0
:100540008093E000E70110E00AEF83E0882E9AE351
:10055000992E2097D9F10E941B0E81110AC00150DB
:1005600009F43DC061E070E080E090E00E940A0F75
:10057000F0CF282F30E0C217D3070CF48C2F4FB7E1
:10058000F8948092E9009091E80095FF1DC0282F13
:1005900030E0C21BD30BF601982F915020F08191CF
:1005A0008093F100FACFC20ED31E112319F090925E
:1005B000E80009C08091E80085FD06C09092E8003F
:1005C00011E0209709F010E04FBFC3CF1111C3CF46
:1005D0005D9A84E68093DA011E141F0444F081E0E2
:1005E00090E0F5019383828380E090E001C0C70131
:1005F000DF91CF911F910F91FF90EF90DF90CF90FF
:10060000BF90AF909F908F9008950E941B0E90E036
:1006100008950F931F93CF93DF931F92CDB7DEB74B
:100620008C01FC018485958597FF0EC0CE01019653
:100630000E94F10D019719F4298130E002C02FEFDB
:100640003FEFF80135872487F801848595850F9061
:10065000DF91CF911F910F910895CF93DF931F9258
:10066000CDB7DEB7FC018485958597FD05C02FEFDA
:100670003FEF358724870BC0CE0101960E94F10D14
:10068000019719F4898190E002C08FEF9FEF0F90DE
:10069000DF91CF9108950F931F93CF93DF93FC01C8
:1006A000A285B3859C918481892B8C93A681B78187
:1006B0009C918481809589238C938BE090E00197B5
:1006C000F1F7A681B7819C918481892B8C9383E279
:1006D00090E00197F1F7A681B7819C918481809584
:1006E00089238C93A285B3859C91848180958923ED
:1006F0008C93A085B1859C918581892311F080E040
:1007000037C0EF010E942A0B2C853D85890120E02E
:1007100030E00855194E2F4F3F4FDC01CB01800FC1
:10072000911FA21FB31F8E879F87A88BB98BE88567
:10073000F98590818D81892361F40E942A0B0E85B1
:100740001F8528893989061717072807390778F779
:10075000D6CF0E942A0B2C853D85DC01CB01820F70
:10076000931FA11DB11D8E879F87A88BB98B81E038
:10077000DF91CF911F910F9108958F929F92AF9229
:10078000BF92CF92DF92EF92FF920F931F930E943E
:100790002A0B00910203109103032091040330916E
:1007A0000503061717072807390718F41092720077
:1007B00045C0E091FC02F091FD0290818091F90228
:1007C0008923E1F5109272000E942A0B2091000308
:1007D000309101036901E12CF12C00910203109189
:1007E0000303209104033091050346015701801A49
:1007F000910AA20AB30A950184010D501109210939
:100800003109DC01CB01800F911FA21FB31F809320
:10081000F4029093F502A093F602B093F70269E315
:1008200070E00E94871A6115710521F46091D6026B
:100830007091D7027093DD026093DC021F910F91DB
:10084000FF90EF90DF90CF90BF90AF909F908F90F0
:1008500008950F931F93CF93DF93EC012C813D817B
:1008600082962115310581F02F5F3F4F69E3629F2A
:10087000A001639F500D11244E382FE6520710F04F
:100880004DE85FE65FA74EA70E944B0381110EC0A3
:1008900060E070E01DC00E942A0B08A919A92AA9CE
:1008A0003BA9061717072807390790F3EAA5FBA508
:1008B00090818FA1892379F70E942A0B2EA53FA54D
:1008C0002550310948A959A9241B350B620F731F04
:1008D00080E090E029E330E040E050E00E94FE1725
:1008E000211531054105510511F42C813D813B87CE
:1008F0002A87DF91CF911F910F9108954F925F92B8
:100900006F927F928F929F92AF92BF92CF92DF921F
:10091000EF92FF920F931F93CF93DF9300D000D0FD
:10092000CDB7DEB78C01DC0112964D915C91139727
:10093000CA01A0E0B0E089839A83AB83BC83D8016D
:100940001496CD90DC901597E12CF12C95968D9016
:100950009C909697092C000CAA08BB0893964D9082
:100960005C909497052C000C6608770892968C9101
:100970000E94DF0E092E000CAA0BBB0B9C01AD01DF
:10098000241935094609570969817A818B819C812F
:100990006C197D098E099F090E946B1AA5019401AB
:1009A00024193509460957090E949517C20ED31E0E
:1009B000E41EF51EF801D386C2860F900F900F90AB
:1009C0000F90DF91CF911F910F91FF90EF90DF90EB
:1009D000CF90BF90AF909F908F907F906F905F90DF
:1009E0004F9008950F931F93CF93DF93EC0188816D
:1009F0009981009729F02A813B812617370788F4CF
:100A00008B016F5F7F4F0E94D51B009761F0998328
:100A100088831B830A832C813D81232B11F4FC01E5
:100A2000108281E001C080E0DF91CF911F910F9192
:100A30000895CF93DF93EC0188819981009711F09D
:100A40000E943D1B198218821D821C821B821A8201
:100A5000DF91CF9108951F920F920FB60F9211243C
:100A60008F939F938091E1009091E100937F909309
:100A7000E10083FF0FC01092E90091E09093EB003A
:100A80001092EC0092E39093ED001092080298E02F
:100A90009093F00082FF20C093E09093E900909142
:100AA000F200992319F09AE39093E8009091DA010B
:100AB000992339F09091DA0191509093DA019923BA
:100AC00089F190910702992339F090910702915092
:100AD00090930702992341F184FF10C08091E200B6
:100AE0008E7E81608093E2008091E1008F7E809312
:100AF000E1008091DC018E7E806111C080FF16C014
:100B00008091E2008E7E80618093E2008091E1001E
:100B10008E7E8093E1008091DC018E7E81608093E7
:100B2000DC0104C05D98CDCF2898D6CF9F918F91DE
:100B30000F900FBE0F901F9018951F920F920FB637
:100B40000F921124CF92DF92EF92FF920F931F9397
:100B50002F933F934F935F936F937F938F939F93C5
:100B6000AF93BF93EF93FF93CF93DF93CDB7DEB7F0
:100B70006C97DEBFCDBF1092E9008091E80083FF43
:100B8000EDC168E0CE0145960E94D30182EF8093CB
:100B9000E8008D8987FF05C09091E80090FFFCCFA9
:100BA00003C09EEF9093E800982F907609F0C6C09E
:100BB0009E892F89188D91110CC0803829F480915D
:100BC000DD018093F10002C01092F1001092F1005B
:100BD00048C1422F50E0512B913051F4811141C155
:100BE0004130510509F03DC18091DD018D7F0BC081
:100BF000933061F4811135C14130510509F031C1A3
:100C00008091DD0182608093DD012BC1953041F43C
:100C10008091E80080FFFCCF20682093E30021C191
:100C2000963009F05FC0EB8CFC8C1092E9001092BA
:100C3000D9011092D801123091F51092D70110927B
:100C4000D6010E944E0299E0BE016F5F7F4FDB012B
:100C5000E92F1D92EA95E9F799831A8391E09E8323
:100C600090EA98879AEF99872091D8013091D9011D
:100C7000275F3F4F3C832B838D831092E9001092B6
:100C8000D9011092D801F092D701E092D60149E043
:100C900050E080E00E94AC010E944E02E2C0F0925F
:100CA000D701E092D6010E942C0EDC011296ED9045
:100CB000FC901397E114F10409F4C0C0D701ED9141
:100CC000FC910480F581E02DBE016B5E7F4FC70172
:100CD0000995009719F00CF0C4C0C7C0F701E08473
:100CE000F184E8CF973009F4C0C0983021F481E056
:100CF0008093F100B6C0993009F0B3C0837009F059
:100D0000B4C0E7E1F1E081E021E036E3908199238E
:100D100061F08093E9002093EB0091919093EC00B7
:100D20003093ED008F5F873089F78EE78093EA007C
:100D30001092EA008F898093080293C08B8D9C8D5E
:100D40001092E9001092D9011092D8019093D70126
:100D50008093D601898D811156C08E899D89913AE3
:100D600059F4813209F081C047E050E064E071E05D
:100D700080E00E94AC0175C0913209F076C08332E8
:100D800089F4888D90E0982F88272F89822BA0E006
:100D9000B0E08093000190930101A0930201B09311
:100DA00003015FC0803269F48091E80082FFFCCFCC
:100DB00067E084E091E00E94D3018BEF8093E8002C
:100DC00006C0823209F04DC08F8980930B0180915B
:100DD000DB01882319F0EEEFFAE002C0E0E0F8E072
:100DE0008091040190910501A0910601B091070145
:100DF000803B9440A105B10509F07BC080910B01B7
:100E000080FF93C076C00E942C0EDC0112960D91DB
:100E10001C9113970115110541F1D801ED91FC9139
:100E20000190F081E02DBE016B5E7F4FC8010995F6
:100E3000811117C0F80100851185ECCF113009F43C
:100E40004EC0133091F48F89882309F445C0823055
:100E500081F440E86DE088E891E00E946F0188230A
:100E600021F08EEF8093E80079C081E28093EB005F
:100E700075C0813029F440E86BE08CE791E0EDCF5C
:100E8000833099F70E942C0EDC011296ED90FC90B5
:100E900013978E010F5F1F4F6801E114F10479F081
:100EA000D701ED91FC910680F781E02DB801C701D3
:100EB0000995080F111DF701E084F184EECFD801E8
:100EC0001C92F60101900020E9F73197BF016C19DF
:100ED0007D0940E0C601C1CF66E671E002C06AE666
:100EE00071E06115710509F2FB01449150E080E861
:100EF00040CF0FB6F894A8958091600088618093E8
:100F00006000109260000FBEA895EE3F2AE0F20745
:100F100039F08091FE0A9091FF0A91838083A1CFDE
:100F20001092FF0A1092FE0A9CCFEE3F8AE0F8076B
:100F300031F0808191819093FF0A8093FE0A87E7C8
:100F400097E7918380839BE088E10FB6F894A8959A
:100F5000809360000FBE9093600083CF6C960FB6B5
:100F6000F894DEBF0FBECDBFDF91CF91FF91EF911F
:100F7000BF91AF919F918F917F916F915F914F91B1
:100F80003F912F911F910F91FF90EF90DF90CF90A5
:100F90000F900FBE0F901F9018951F920F920FB6D3
:100FA0000F9211242F933F934F935F936F937F93EF
:100FB0008F939F93AF93BF93EF93FF93E091D401EF
:100FC000F091D5010995FF91EF91BF91AF919F915C
:100FD0008F917F916F915F914F913F912F910F90E2
:100FE0000FBE0F901F901895FC0190819C3080F5EA
:100FF000818128E830E0281B310987FD3395220FD5
:10100000331F220F331F621773077CF0828128E59C
:1010100032E0281B310987FD3395220F331F220F41
:10102000331F621773070CF49B0122503109220F02
:10103000331F4FB7F894892F90E0FC01EE0FFF1F8C
:101040008E0F9F1FFC01E252FE4F328321834FBF60
:101050000895DF92EF92FF920F931F93CF93DF9348
:10106000EC01D62E7A01890188818C3008F06AC0A3
:1010700061E08D2D0E94A30E8881E82FF0E09F0192
:10108000220F331FE20FF31FE252FE4F9D2D9F737D
:101090002081207CD22ED92AD08260E272E0AB017E
:1010A0004E195F0957FF02C04D5F5F4F5595479539
:1010B00055954795498340E659E09A01201B310B2D
:1010C00037FF02C02D5F3F4F359527953595279502
:1010D0002A836CE00E947B1A9CE0899FB001112456
:1010E00040E050E09A01260F371FF901EE0FFF1F75
:1010F0002E0F3F1FF901E252FE4F908196FD16C060
:101100004F5F5F4F4C30510569F781110FC010924E
:10111000800082E08093810010928500109284000C
:10112000B19A80916F00826080936F00E881F0E057
:10113000CF01880F991FE80FF91FE252FE4F8081FF
:10114000806480838881DF91CF911F910F91FF9000
:10115000EF90DF900895FC019091D3019C30A0F4B2
:1011600081E0890F8093D3019083892F90E0FC0167
:10117000EE0FFF1F8E0F9F1FFC01E252FE4F88EB08
:101180009BE09283818308958FEF808308951F925F
:101190000F920FB60F9211242F933F934F935F93AB
:1011A0006F937F938F939F93AF93BF93EF93FF932F
:1011B0008091D20187FF05C01092850010928400B3
:1011C0001BC02091D201022E000C330B8091D30161
:1011D00090E02817390784F48091D201082E000C82
:1011E000990BFC01EE0FFF1F8E0F9F1FFC01E252B7
:1011F000FE4F808186FD15C08091D2018F5F809364
:10120000D2012091D201022E000C330B8091D30128
:1012100090E028173907C4F48091D2018C3064F132
:1012200013C08091D201082E000C990BFC01EE0F27
:10123000FF1F8E0F9F1FFC01E252FE4F808160E076
:101240008F730E94400ED8CF8091840090918500CA
:10125000049680349C4918F480E49CE905C0809190
:101260008400909185000496909389008093880073
:101270008FEF8093D2013BC0209184003091850094
:101280008091D201082E000C990BFC01EE0FFF1F7C
:101290008E0F9F1FFC01E252FE4F81819281820FCF
:1012A000931F90938900809388008091D201082E2B
:1012B000000C990BFC01EE0FFF1F8E0F9F1FFC010E
:1012C000E252FE4F808186FF12C08091D201082E2B
:1012D000000C990BFC01EE0FFF1F8E0F9F1FFC01EE
:1012E000E252FE4F808161E08F730E94400EFF91B9
:1012F000EF91BF91AF919F918F917F916F915F918E
:101300004F913F912F910F900FBE0F901F90189506
:10131000089508958FB7F8944091090250910A02F8
:1013200060910B0270910C028FBF8091F00290913E
:10133000F102A091F202B091F302481759076A072F
:101340007B0708F453C02FB7F8948091090290915D
:101350000A02A0910B02B0910C022FBF4496A11D6E
:10136000B11D8093F0029093F102A093F202B0932A
:10137000F302109272008091D6029091D7020097EA
:1013800089F0019649E3489F9001499F300D11244F
:101390002E388FE6380710F02DE83FE63093010332
:1013A0002093000384EF92E00E944B038823F1F026
:1013B0008DEB93E09093D5018093D401109272004D
:1013C0001092C4001092C3001092C2001092C0008C
:1013D00087E48093C10084E089BB1092BF00109223
:1013E000BE0095E09093D100809372008DE592E06D
:1013F0000E94F20B8BEA92E00E94F20B84E892E0EA
:101400000C94F20BCF92DF92EF92FF920F931F9307
:10141000CF93DF938B01D82FC92F20E030E0A901B3
:101420000E94711620E030E044EB53E4B80187FFDE
:1014300005C08D2F9C2F0E94301813C08D2F9C2F1C
:101440000E94FE1987FD0AC020E030E044EB53E41F
:10145000B8018D2F9C2F0E942F1803C0B8018D2F2B
:101460009C2F6B017C01C701B601DF91CF911F91C9
:101470000F91FF90EF90DF90CF900895CF92DF9281
:10148000EF92FF920F931F93CF93DF937C016B0139
:101490008B01075C1F4FF6018089882311F1648559
:1014A0007585868597850E942E19EB01F60160856A
:1014B0007185828593850E942E196C177D0789F0AE
:1014C0006E157F0559F06F5F7F4F072E000C880B5C
:1014D000990B0E9478160E94020AEDCF80E090E0FE
:1014E00008C0F3E1CF0ED11CC016D106A1F681E0F1
:1014F00090E0DF91CF911F910F91FF90EF90DF90DF
:10150000CF9008950E949F1CCF92DF92EF92FF929E
:101510000F931F93CF93DF93CDB7DEB727970FB607
:10152000F894DEBF0FBECDBF8C01CB014AE09E0117
:101530002F5F3F4F6901B9010E944716F6010190E4
:101540000020E9F73197EC19FD09D8011496ED90C8
:10155000FC9015973097D9F0EE0EFF1EB701C80129
:101560000E94F204882381F0F80120813181848176
:101570009581B601820F931F0E94AD1CD80115966C
:10158000FC92EE92149703C0C8010E941905C8018D
:1015900027960FB6F894DEBF0FBECDBFDF91CF9177
:1015A0001F910F91FF90EF90DF90CF900895EF92F1
:1015B000FF920F931F93CF93DF93EC01FB01848184
:1015C0009581E080F1800C811D81E114F104B1F07E
:1015D0000097B9F0080F191FB801CE010E94F2045C
:1015E000882361F0288139818C819D81B701820F28
:1015F000931F0E94AD1C1D830C8303C0CE010E946B
:101600001905CE01DF91CF911F910F91FF90EF90BF
:101610000895EF92FF920F931F93CF93DF93EC0106
:101620007B018A01BA010E94F204811104C0CE013B
:101630000E94190507C01D830C83B7018881998119
:101640000E94AD1CCE01DF91CF911F910F91FF90B1
:10165000EF9008953FB7F8948091030290910402AF
:10166000A0910502B091060226B5A89B05C02F3FA8
:1016700019F00196A11DB11D3FBFBA2FA92F982FB8
:101680008827820F911DA11DB11DBC01CD0142E033
:10169000660F771F881F991F4A95D1F708951F92EB
:1016A0000F920FB60F9211242F933F938F939F9316
:1016B000AF93BF938091090290910A02A0910B020F
:1016C000B0910C023091020223E0230F2D3720F459
:1016D0000196A11DB11D05C026E8230F0296A11D8C
:1016E000B11D209302028093090290930A02A093F5
:1016F0000B02B0930C028091030290910402A0911E
:101700000502B09106020196A11DB11D809303024E
:1017100090930402A0930502B0930602BF91AF918B
:101720009F918F913F912F910F900FBE0F901F901F
:101730001895BC01009791F0FC0101900020E9F799
:101740003197AF01481B590BE0910D02F0910E0249
:101750000280F381E02D8DE092E0099480E090E03A
:1017600008958F929F92AF92BF920F931F93CF9342
:10177000DF93CDB7DEB7A1970FB6F894DEBF0FBEEB
:10178000CDBF19A2423008F44AE08E010F5D1F4F11
:10179000842E912CA12CB12CA50194010E94FE173E
:1017A000E62FB901CA0101501109EA3014F4E05DD5
:1017B00001C0E95CD801EC93232B242B252B61F786
:1017C000C8010E94990BA1960FB6F894DEBF0FBE18
:1017D000CDBFDF91CF911F910F91BF90AF909F90A0
:1017E0008F9008950F931F934FB7F89400910902BB
:1017F00010910A0220910B0230910C024FBFDC01C4
:101800005E964D915D916D917C91919704171507AE
:101810002607370790F0415F5F4F6F4F7F4FFC0106
:10182000468F578F60A371A30190F081E02D048053
:10183000F581E02D1F910F9109941F910F9108954B
:10184000CF92DF92EF92FF920F931F93CF93DF938C
:10185000C82FD62F809116039091170396958795E0
:101860002091120330911303280F391F4091100368
:1018700050911103481B590B60910E0370E082E2F6
:1018800093E00E9429088091160390911703969582
:1018900087952091100330911103280F391F409133
:1018A000120350911303481B590B60910F0370E012
:1018B00085E293E00E942908C0931403D093150396
:1018C0000091100310911103C195E0901603F09060
:1018D0001703F694E794AC2F0C2E000CBB0BB7FF4C
:1018E00003C0B195A195B10997010E94A11A24E600
:1018F00030E040E050E00E949517C901C7FF04C0E6
:1019000088279927821B930B080F191FC090120379
:10191000D0901303AD2F0D2E000CBB0BB7FF03C0EF
:10192000B195A195B10997010E94A11A24E630E072
:1019300040E050E00E949517C901D7FF04C08827F6
:101940009927821B930BE601C80FD91FB80182E2C9
:1019500093E00E94F407BE0185E293E0DF91CF910E
:101960001F910F91FF90EF90DF90CF900C94F407B0
:101970008F929F92AF92BF92CF92DF92EF92FF929F
:101980007B01209118033091190397FF03C09195B3
:1019900081959109DC010E94A11A28E631E040E01E
:1019A00050E00E949517CA01B9010E94781620E004
:1019B00030E048EC52E40E94D7164B015C01B701BD
:1019C000FF0C880B990B0E9478169B01AC01C50196
:1019D000B4010E94BC186B017C0120E030E0A90139
:1019E0000E94FE1920E030E040E05FE387FD05C083
:1019F000C701B6010E94301804C0C701B6010E9499
:101A00002F180E942E19CB01FF90EF90DF90CF90FE
:101A1000BF90AF909F908F9008954F925F926F927A
:101A20007F928F929F92AF92BF92CF92DF92EF926E
:101A3000FF926B017C01B42E9B01AC010E94511AF4
:101A4000882319F082EC91E027C026013701E89441
:101A500077F82FEF3FEF4FE75FE7C301B2010E9436
:101A6000511A81110DC02FEF3FEF4FE75FE7C30120
:101A7000B2010E94711618161CF486EC91E00CC09D
:101A80002FEF3FEF4FE75FE4C701B6010E94FE1959
:101A9000181684F48AEC91E0FF90EF90DF90CF90DD
:101AA000BF90AF909F908F907F906F905F904F907E
:101AB0000C94990B2FEF3FEF4FE75FECC701B60196
:101AC0000E94711687FDE6CF20E030E0A901C70132
:101AD000B6010E94711687FF11C0E0910D02F091CE
:101AE0000E020190F081E02D6DE28DE092E009950B
:101AF0004C01F7FAF094F7F8F09402C0812C912C85
:101B0000A12C60E070E080E09FE3AB1441F020E0A6
:101B100030E040E251E40E94BC18A394F6CF9B0150
:101B2000AC01C701B6010E9430182B013C010E9494
:101B300035196B017C010E9476169B01AC01C30133
:101B4000B2010E942F182B013C014AE0C701B601E7
:101B50000E94B10B7C01E80CF91CBB2069F0E091FC
:101B60000D02F0910E020190F081E02D6EE28DE009
:101B700092E00995E80EF91EDB2CDD2021F120E032
:101B800030E040E251E4C301B2010E94D7162B01BC
:101B90003C010E9435194B01A12CB12C4AE0C50132
:101BA000B4010E94B10BE80EF91EC501B4010E94F8
:101BB00076169B01AC01C301B2010E942F182B01C4
:101BC0003C01DA94DACFC701FF90EF90DF90CF901D
:101BD000BF90AF909F908F907F906F905F904F904D
:101BE0000895FC0180910802811103C08FEF9FEFDF
:101BF00008959FB7F89482E08093E9002091F20065
:101C000030E01216130614F421E030E021153105FE
:101C100059F0289A84E6809307028091F10080832E
:101C20008091F200882319F09FBFC90108958BE6C7
:101C30008093E800F9CF2FB7F89483E08093E90010
:101C40009091E800892F807295FF04C09091F20076
:101C500080E4891B2FBF089580912C0381110DC052
:101C600082E08093280384E08093290310922B0361
:101C700010922A0381E080932C0388E293E0089578
:101C8000362F90E0FC01EE55FE4F4491FC01E65FDB
:101C9000FD4F2491FC01E551FE4F8491882309F406
:101CA00051C04423E1F150E0FA013197EF30F105E2
:101CB000B0F5EA5AFF4F0C949B1A909180009F77E1
:101CC00007C0909180009F7D03C090918000977F16
:101CD0009093800024C094B59F7702C094B59F7DF7
:101CE00094BD1DC0909190009F7707C09091900087
:101CF0009F7D03C090919000977F909390000FC0BC
:101D00009091C0009F7703C09091C0009F7D9093F9
:101D1000C00005C09091C200977F9093C200E82F49
:101D2000F0E0EE0FFF1FE352FE4FA591B4918FB785
:101D3000F894EC91311103C020952E2301C02E2B75
:101D40002C938FBF0895CF93DF9390E0FC01E65F63
:101D5000FD4F2491FC01E551FE4F8491882361F1F0
:101D600090E0880F991FFC01EF53FE4FC591D4916D
:101D7000FC01E352FE4FA591B491611109C09FB7D8
:101D8000F8948881209582238883EC912E230BC0C0
:101D9000623061F49FB7F8943881822F8095832355
:101DA0008883EC912E2B2C939FBF06C08FB7F8949D
:101DB000E8812E2B28838FBFDF91CF910895823148
:101DC00008F08251E82FF0E0EA56FE4FE49180914E
:101DD0007B00E3FB222720F930E095E0220F331F40
:101DE0009A95E1F78F7D282B20937B00E770E064C4
:101DF000E0937C0080917A00806480937A008091E7
:101E00007A0086FDFCCF809178002091790090E0E7
:101E1000922B08958F929F92AF92BF92CF92DF92B2
:101E2000EF92FF926B017C010E942A0B4B015C0137
:101E3000C114D104E104F104F1F00E942A0BDC0189
:101E4000CB0188199909AA09BB09883E9340A105CD
:101E5000B10570F321E0C21AD108E108F10888EE5B
:101E6000880E83E0981EA11CB11CC114D104E104AA
:101E7000F10419F7DDCFFF90EF90DF90CF90BF9086
:101E8000AF909F908F900895CF92DF92EF92FF9244
:101E9000CF93DF93C0911403D0911503CC2309F4A1
:101EA00047C0DD2309F444C06C2F70E080E090E06F
:101EB0000E9478166B017C0123EC35EF48E25FE36A
:101EC0000E94D7169B01AC01C701B6010E942F18D2
:101ED0000E943519C62F6D2F70E080E090E00E94BF
:101EE00078166B017C0123EC35EF48E25FE30E943A
:101EF000D7169B01AC01C701B6010E942F180E94A2
:101F00003519D62F8CEE8C0F8C3E08F0C0E08CEE8D
:101F10008D0F8C3E10F0109215036D2F8C2F0E94A8
:101F2000200C65E070E080E090E00E940A0FB6CFE0
:101F300083E090E090930D0380930C03DF91CF91A9
:101F4000FF90EF90DF90CF9008950895CF93DF93A7
:101F5000CDB7DEB7C655D1090FB6F894DEBF0FBEB8
:101F6000CDBF789484B5826084BD84B5816084BD22
:101F700085B5826085BD85B5816085BD80916E0027
:101F8000816080936E001092810080918100826058
:101F90008093810080918100816080938100809195
:101FA00080008160809380008091910082608093A6
:101FB00091008091910081608093910080919000C8
:101FC0008160809390008091C10084608093C10003
:101FD0008091C10082608093C1008091C1008160C6
:101FE0008093C1008091C30081608093C300809181
:101FF000C00082608093C0008091C20081608093A5
:10200000C20080917A00846080937A0080917A0087
:10201000826080937A0080917A00816080937A0058
:1020200080917A00806880937A0010920802109262
:10203000DD011092DC018091D70081608093D70090
:1020400080EA8093D80089B5806189BD89B58260B6
:1020500089BD09B400FEFDCF61E070E080E090E052
:102060000E940A0F8091D8008F7C80618093D800F5
:102070008091E000807F8093E0008091E1008E7E7F
:102080008093E1008DE08093E200559A209A5D985C
:102090002898EEEFFFE7859194918B3F9C4D19F4C2
:1020A00081E08093DB018FEF9FEF90931A02809382
:1020B000190280E00E94DF0EBC01990F880B990B7A
:1020C000611571058105910511F00E943E160E946F
:1020D000440FE0912203F0E0CF01880F991FE80F31
:1020E000F91FE252FE4F80818F7B8083E0912503B0
:1020F000F0E0CF01880F991FE80FF91FE252FE4F61
:1021000080818F7B808385E090E090930D038093A6
:102110000C036091090370E020E639E040E252E0F0
:1021200086E093E00E9429088091070328E830E0C8
:102130006901C81AD10887FDD394CC0CDD1CCC0CE6
:10214000DD1C0D2C000CEE08FF088091080328E52B
:1021500032E0281B310987FD3395220F331F220FF0
:10216000331FC901330FAA0BBB0B9C01AD012C1906
:102170003D094E095F09AAE5B0E00E94B41724EBBF
:1021800030E040E050E00E949517CA01B9016C0DA3
:102190007D1D8E1D9F1D86E093E00E94F407CE01F9
:1021A00001961C01DE01DA962E96BFAFAEAF2E97D8
:1021B0000E948A098101F101108211821282138228
:1021C0001482158216821782108611861286138653
:1021D0001486158616861786108A23E531E0328B21
:1021E000218B73962E968EAD9FAD2E97E817F9072B
:1021F00019F7ADE1B1E06696BFAFAEAF66976696F0
:10220000EEADFFAD6697219131916696FFAFEEAFCF
:10221000669760963FAF2EAF6097D9011A96AD9042
:10222000BC901B9716968D919C9117978A159B05CC
:1022300008F491C025E33AEF4EE85CE350966D91C7
:102240007D918D919C9153970E94D7166B017C01D3
:102250000E94031A2B013C01B50180E090E00E942E
:1022600076164B015C01C701B6010E94B718A501A3
:1022700094010E94BC186096EEADFFAD6097248972
:102280003589468957890E9430186B017C01A50168
:102290009401C301B2010E94BC186096AEADBFADFF
:1022A000609758962D913D914D915C915B970E945E
:1022B00030184B015C01A7019601C701B6010E94CD
:1022C000D7166B017C01A5019401C501B4010E94E0
:1022D000D7169B01AC01C701B6010E9430180E94BD
:1022E000111A6B017C019B01AC01C501B4010E9474
:1022F000BC180E949C186096EEADFFAD60974484B8
:10230000558466847784248D358D64963FAF2EAFD7
:10231000649721EE3EE245E652E40E94D7160E9401
:10232000020A4B015C01A30192010E942F180E9436
:10233000020A62966CAF7DAF8EAF9FAF6297A3012A
:102340009201C501B4010E9430180E94020A2B01BB
:102350003C0121E016C083E591E064969FAF8EAF0B
:10236000649720E0412C512C320162964CAE5DAE58
:102370006EAE7FAE629753014201C12CD12CE12C8D
:10238000F12CC601D701F80180839183A283B38326
:1023900084829582A682B78262968CAD9DADAEADE9
:1023A000BFAD629780879187A287B387D8014486A3
:1023B000558666867786208B6496EEADFFAD649772
:1023C0005296FC93EE935197222309F44AC0209130
:1023D0000B016AE070E080E090E067962FAF6797AE
:1023E0000E940A0F67962FAD67972223D1F188E5E7
:1023F00091E00E94990B86E891E00E94990B649607
:102400008EAD9FAD64970E94990B89E891E00E9480
:10241000990B42E0B601C7010E940D0D84E991E0DD
:102420000E94990B42E0C501B4010E940D0D8DE997
:1024300091E00E94990B42E062966CAD7DAD8EAD4D
:102440009FAD62970E940D0D86EA91E00E94990B64
:1024500042E0C301B2010E940D0D86E891E00E94A6
:10246000990B0D5E1F4F2E962EAD3FAD2E97021786
:10247000130709F0C4CEB10180E090E00E943E0A4B
:10248000892B01F501E010E0B101C8010E943E0A6C
:10249000892B09F538E6E32EFF24F394E01AF10ABC
:1024A000B101C7010E943E0A892B21F0870108561D
:1024B000114011C00F5F1F4F043B110529F70AE5BA
:1024C00010E009C060E580E50E94200C10920D0329
:1024D00010920C0348C0C80117FF04C08827992731
:1024E000801B910B8E9704F10115110579F017FFF0
:1024F00003C06CE384EC02C064EC8CE30E94200C0B
:1025000082E090E090930D0380930C036CE370E005
:10251000C8010E94B80CBC01990F880B990B0E944E
:102520000A0F0E94440F1FC00115110579F017FF13
:1025300003C06CE380E002C060E08CE30E94200CEA
:1025400082E090E090930D0380930C036CE370E0C5
:10255000C8010E94B80C880F991FBC01990F880B05
:10256000990B0E940A0F10910B016AE070E080E065
:1025700090E00E940A0F112309F49CC000918E0282
:1025800010918F0228961FAE1EAE28972A961FAE76
:102590001EAE2A972C961FAE1EAE2C9741E050E03F
:1025A0006AEA71E0CE018A5B9F4F0E94090BE090BE
:1025B000DC02F090DD0222961FAE1EAE229724961A
:1025C0001FAE1EAE249726961FAE1EAE269741E084
:1025D00050E06AEA71E0CE01805C9F4F0E94090BD7
:1025E0008091B5029091B6021BAE1AAE1DAE1CAE24
:1025F0001FAE1EAE4AE0B1010E944716F1010190E4
:102600000020E9F73197AF0142195309B101CE011A
:10261000CA960E94090BBE01605C7F4FCE01CA962C
:102620000E94D70AB7010E94840ABE016A5B7F4FED
:102630000E94D70AB8010E94840A1A8219821C8259
:102640001B821E821D822816390671F0DC016D91F5
:102650007C9111976115710539F014964D915C913B
:102660001597C1010E94090B8AAD9BAD0E943D1BCD
:1026700022968EAD9FAD22970E943D1B28968EAD6F
:102680009FAD28970E943D1BE0910D02F0910E0234
:102690004D815E8169817A810280F381E02D8DE038
:1026A00092E0099586E891E00E94990B89819A81D0
:1026B0000E943D1B80E090E0892B09F479CD0E94B7
:1026C000000070CD2F923F924F925F926F927F9257
:1026D0008F929F92AF92BF92CF92DF92EF92FF9232
:1026E0000F931F93CF93DF9300D000D0CDB7DEB709
:1026F0001092100210920F0288EE93E0A0E0B0E07A
:102700008093110290931202A0931302B0931402CB
:1027100087E291E090930E0280930D028FEF9FEF7E
:1027200090931A02809319022BED3FE049E450E4A4
:1027300060911A0370911B0380911C0390911D03FB
:102740000E94D71660931E0370931F03809320038B
:102750009093210382E293E00E94AB0885E293E02C
:102760000E94AB0885E090E090930D0380930C03EA
:102770008BE080930E038CE080930F038BE096E058
:1027800090931103809310038EE096E090931303CF
:102790008093120380E991E09093170380931603CE
:1027A000109214031092150384E893E09093190398
:1027B0008093180380E090E0A8E1B1E480931A03CD
:1027C00090931B03A0931C03B0931D0384ED92EC24
:1027D000AEEEB1E480931E0390931F03A0932003F9
:1027E000B093210380E00E94DF0EBC01990F880B9B
:1027F000990B611571058105910511F00E943E1636
:102800001092F0021092F1021092F2021092F30272
:102810008CEA91E09093EF028093EE0285E090E0E5
:102820009093D5028093D40284EF91E09093D702E5
:102830008093D60209E110E01093D9020093D802E8
:1028400042E350E05093DB024093DA029093DD02C2
:102850008093DC0280E090E0A2E8B2E48093E6029C
:102860009093E702A093E802B093E9021092EA0283
:102870001092EB021092EC021092ED0280E090E0D8
:10288000A4E3B2E48093DE029093DF02A093E0021F
:10289000B093E1021092E2021092E3021092E4027D
:1028A0001092E50289E391E09093D3028093D202E3
:1028B000EFE0F2E0E491E093F802E0E1F2E0E4918D
:1028C000E093F90280EF91E0FC012491E22FF0E027
:1028D000EE0FFF1FE352FE4F259134913093FB0220
:1028E0002093FA02E1EFF1E0E491F0E0EE0FFF1F38
:1028F000E153FE4F259134913093FD022093FC0269
:10290000FC018491E82FF0E0EE0FFF1FEF53FE4F24
:10291000859194919093FF028093FE028DE89FE64B
:10292000909301038093000386E093E04B835C83E4
:102930000E94AB0887E08093090385E080930A0337
:1029400086E080930B031092C9021092CA02109283
:10295000CB021092CC0282EB91E09093C80280935C
:10296000C70274E0C72ED12CD092AE02C092AD0245
:102970008EE190E09093B0028093AF021093B20288
:102980000093B1021093B4020093B3029093B60285
:102990008093B502412C512CEEEB6E2EE2E47E2E9C
:1029A0004092BF025092C0026092C1027092C20275
:1029B00080E090E0ACE0B2EC8093C3029093C4025C
:1029C000A093C502B093C602812C912CF0EFAF2EDC
:1029D000F1E4BF2E8092B7029092B802A092B902A1
:1029E000B092BA0280E090E4A0EBB3E48093BB0223
:1029F0009093BC02A093BD02B093BE02ADE4EA2E58
:102A0000A1E0FA2EF092AC02E092AB0282E1809358
:102A1000CD02B3E02B2E312C3092CF022092CE0289
:102A200028E532E03093D1022093D00260E0298380
:102A30003A830E94A30E1092A2021092A302109257
:102A4000A4021092A50287EB91E09093A1028093DB
:102A5000A002D0928702C0928602EEE1F0E0F093ED
:102A60008902E093880210938B0200938A021093EC
:102A70008D0200938C02F0938F02E0938E024092BD
:102A800098025092990260929A0270929B0280E0A2
:102A900090E0ACE0B2E480939C0290939D02A093FE
:102AA0009E02B0939F028092900290929102A09217
:102AB0009202B092930280E090E0A0EFB0E48093A5
:102AC000940290939502A0939602B0939702F0928D
:102AD0008502E092840283E18093A6023092A802EC
:102AE0002092A70229813A813093AA022093A90259
:102AF00060E00E94A30E10927B0210927C02109262
:102B00007D0210927E028DEB91E090937A02809389
:102B10007902D0926002C0925F028EE190E09093C1
:102B200062028093610210936402009363024B81FE
:102B30005C81509366024093650290936802809393
:102B40006702409271025092720260927302709218
:102B5000740210927502109276021092770210920F
:102B600078028092690290926A02A0926B02B092FF
:102B70006C0210926D0210926E0210926F0210920F
:102B80007002F0925E02E0925D0284E180937F0227
:102B9000309281022092800229813A81309383020F
:102BA0002093820260E00F900F900F900F90DF91C2
:102BB000CF911F910F91FF90EF90DF90CF90BF903A
:102BC000AF909F908F907F906F905F904F903F90CD
:102BD0002F900C94A30E8F929F92AF92BF92CF92A0
:102BE000DF92EF92FF92CF93DF93EC0168817981BE
:102BF0008A819B81611571058105910521F464E24B
:102C000079ED8BE597E02DE133EF41E050E00E9454
:102C1000951749015A019B01AC01A7EAB1E40E9452
:102C2000B4176B017C01ACEEB4EFA50194010E94D6
:102C3000C217DC01CB018C0D9D1DAE1DBF1DB7FF62
:102C400003C00197A109B04888839983AA83BB83F5
:102C5000BC01CD019F77DF91CF91FF90EF90DF9086
:102C6000CF90BF90AF909F908F9008950E94EB15EA
:102C700008958CE091E00E94EB15089560930C019B
:102C800070930D0180930E0190930F010895BB275F
:102C9000FB015527AA27880F991FAA1FA41710F018
:102CA000A41B83955051B9F7A05DAA3308F0A95D24
:102CB000A193009779F7B111B1931192CB010C94C4
:102CC0006116DC01FC01672F71917723E1F73297E0
:102CD00004C07C916D9370836291AE17BF07C8F3F7
:102CE00008950E94B31608F481E00895E89409C09D
:102CF00097FB3EF490958095709561957F4F8F4F2F
:102D00009F4F9923A9F0F92F96E9BB279395F69544
:102D1000879577956795B795F111F8CFFAF4BB0FC2
:102D200011F460FF1BC06F5F7F4F8F4F9F4F16C026
:102D3000882311F096E911C0772321F09EE8872FB0
:102D4000762F05C0662371F096E8862F70E060E06C
:102D50002AF09A95660F771F881FDAF7880F9695E5
:102D6000879597F90895990F0008550FAA0BE0E889
:102D7000FEEF16161706E807F907C0F0121613063D
:102D8000E407F50798F0621B730B840B950B39F47D
:102D90000A2661F0232B242B252B21F408950A26E3
:102DA00009F4A140A6958FEF811D811D08950E9411
:102DB000EA160C945B170E944D1738F00E945417C6
:102DC00020F0952311F00C9444170C944A17112409
:102DD0000C948F170E946C1770F3959FC1F3950F99
:102DE00050E0551F629FF001729FBB27F00DB11D8F
:102DF000639FAA27F00DB11DAA1F649F6627B00D1F
:102E0000A11D661F829F2227B00DA11D621F739F07
:102E1000B00DA11D621F839FA00D611D221F749F15
:102E20003327A00D611D231F849F600D211D822F5C
:102E3000762F6A2F11249F5750409AF0F1F0882383
:102E40004AF0EE0FFF1FBB1F661F771F881F9150B0
:102E50005040A9F79E3F510580F00C9444170C9404
:102E60008F175F3FE4F3983ED4F386957795679587
:102E7000B795F795E7959F5FC1F7FE2B880F911DDA
:102E80009695879597F9089597F99F6780E870E080
:102E900060E008959FEF80EC089500240A941616D0
:102EA000170618060906089500240A941216130638
:102EB000140605060895092E0394000C11F48823C6
:102EC00052F0BB0F40F4BF2B11F460FF04C06F5FE2
:102ED0007F4F8F4F9F4F089557FD9058440F551FB8
:102EE00059F05F3F71F04795880F97FB991F61F08C
:102EF0009F3F79F087950895121613061406551F03
:102F0000F2CF4695F1DF08C0161617061806991F6E
:102F1000F1CF86957105610508940895E894BB2763
:102F200066277727CB0197F90895052E97FB1EF4A6
:102F300000940E94AC1757FD07D00E94FE1707FCB3
:102F400003D04EF40C94AC175095409530952195D4
:102F50003F4F4F4F5F4F08959095809570956195C5
:102F60007F4F8F4F9F4F08950E942018A59F900D6F
:102F7000B49F900DA49F800D911D11240895B7FF5B
:102F80000C94B4170E94B417821B930B08952F92D0
:102F90003F924F925F926F927F928F929F92AF92E9
:102FA000BF92CF92DF92EF92FF920F931F93CF9336
:102FB000DF93CDB7DEB7CA1BDB0B0FB6F894DEBFCD
:102FC0000FBECDBF09942A88398848885F846E84F3
:102FD0007D848C849B84AA84B984C884DF80EE803D
:102FE000FD800C811B81AA81B981CE0FD11D0FB646
:102FF000F894DEBF0FBECDBFED010895A1E21A2EF9
:10300000AA1BBB1BFD010DC0AA1FBB1FEE1FFF1F8C
:10301000A217B307E407F50720F0A21BB30BE40BDC
:10302000F50B661F771F881F991F1A9469F7609523
:103030007095809590959B01AC01BD01CF010895DD
:10304000A29FB001B39FC001A39F700D811D1124E9
:10305000911DB29F700D811D1124911D089550582E
:10306000BB27AA270E9447180C945B170E944D1794
:1030700038F00E94541720F039F49F3F19F426F4D9
:103080000C944A170EF4E095E7FB0C944417E92FD3
:103090000E946C1758F3BA176207730784079507E5
:1030A00020F079F4A6F50C948E170EF4E0950B2E13
:1030B000BA2FA02D0B01B90190010C01CA01A0018A
:1030C0001124FF27591B99F0593F50F4503E68F1E5
:1030D0001A16F040A22F232F342F4427585FF3CF26
:1030E000469537952795A795F0405395C9F77EF4F7
:1030F0001F16BA0B620B730B840BBAF09150A1F040
:10310000FF0FBB1F661F771F881FC2F70EC0BA0FC5
:10311000621F731F841F48F4879577956795B7954D
:10312000F7959E3F08F0B0CF9395880F08F0992748
:10313000EE0F9795879508959F939F77EEE38937D4
:103140009E0728F4EAECF0E00E94AB190CC00E9444
:1031500064199058A2EA2AED3FE049EC5FE30E942F
:1031600047180E945B170F9007FC905808950E9423
:10317000C119E3950C94EA190E94D0180C945B17BE
:103180000E94541758F00E944D1740F029F45F3FF9
:1031900029F00C94441751110C948F170C944A1772
:1031A0000E946C1768F39923B1F3552391F3951B93
:1031B000550BBB27AA2762177307840738F09F5F58
:1031C0005F4F220F331F441FAA1FA9F335D00E2EC5
:1031D0003AF0E0E832D091505040E695001CCAF732
:1031E0002BD0FE2F29D0660F771F881FBB1F2617F5
:1031F00037074807AB07B0E809F0BB0B802DBF01CC
:10320000FF2793585F4F3AF09E3F510578F00C949A
:1032100044170C948F175F3FE4F3983ED4F38695E0
:1032200077956795B795F7959F5FC9F7880F911DBB
:103230009695879597F90895E1E0660F771F881FA7
:10324000BB1F621773078407BA0720F0621B730B5A
:10325000840BBA0BEE1F88F7E09508950E9435198C
:103260006894B1110C948F1708950E94741788F018
:103270009F5798F0B92F9927B751B0F0E1F0660F3A
:10328000771F881F991F1AF0BA95C9F714C0B1307B
:1032900091F00E948E17B1E008950C948E17672F5D
:1032A000782F8827B85F39F0B93FCCF386957795AA
:1032B0006795B395D9F73EF4909580957095619593
:1032C0007F4F8F4F9F4F0895DF93CF931F930F939F
:1032D0008B01EC01EEEDF0E00E9484190E945B1777
:1032E0009801AE018B01EC0160E070E080E89FE3A3
:1032F0000E942F180E94111A9801AE010F911F9180
:10330000CF91DF910C94EA16DF93CF931F930F9325
:10331000FF92EF92DF927B018C01689406C0DA2E57
:10332000EF010E94EA16FE01E894A59125913591DE
:1033300045915591A6F3EF010E944718FE019701B0
:10334000A801DA9469F7DF90EF90FF900F911F9139
:10335000CF91DF9108959F938F937F936F93FF9306
:10336000EF939B01AC010E94D716EF91FF910E9451
:1033700084192F913F914F915F910C94D7160C9423
:103380004A170E947417D8F3E894E0E0BB279F57D0
:10339000F0F02AED3FE049EC06C0EE0FBB0F661FD0
:1033A000771F881F28F0B23A62077307840728F056
:1033B000B25A620B730B840BE3959A9572F78038BF
:1033C00030F49A95BB0F661F771F881FD2F790487D
:1033D0000C94581AEF93E0FF07C0A2EA2AED3FE0F1
:1033E00049EC5FEB0E9447180E945B170F90039413
:1033F00001FC9058E6E0F1E00C94AB190E94B31682
:1034000008F48FEF08959F930E94C1190F9007FC55
:10341000EE5F0C94EA1919F416F40C944A170C9404
:10342000561A0E947417B8F39923C9F3B6F39F573D
:10343000550B87FF0E94641A0024A0E640EA900121
:1034400080585695979528F4805C660F771F881FE3
:1034500020F026173707480730F4621B730B840BE4
:10346000202931294A2BA695179407942025312528
:103470004A2758F7660F771F881F20F0261737074F
:10348000480730F4620B730B840B200D311D411D76
:10349000A09581F7B901842F9158880F969587954B
:1034A00008950E94B316880B990B08959F3F31F041
:1034B000915020F4879577956795B795880F911D62
:1034C0009695879597F9089591505040660F771F0C
:1034D000881FD2F70895DB018F939F930E94B41742
:1034E000BF91AF91A29F800D911DA39F900DB29FA0
:1034F000900D11240895991B79E004C0991F961727
:1035000008F0961B881F7A95C9F780950895AA1B25
:10351000BB1B51E107C0AA1FBB1FA617B70710F0BE
:10352000A61BB70B881F991F5A95A9F780959095F0
:10353000BC01CD010895EE0FFF1F0590F491E02D21
:1035400009940E942018B7FF0895821B930B0895D9
:10355000CF93DF938230910510F482E090E0E09108
:103560003603F091370320E030E0C0E0D0E0309740
:1035700011F14081518148175907C0F04817590788
:1035800061F482819381209719F09B838A832BC0F9
:10359000909337038093360326C02115310519F027
:1035A0004217530718F49A01BE01DF01EF010280B0
:1035B000F381E02DDCCF2115310509F1281B390BF2
:1035C0002430310590F412968D919C9113976115DA
:1035D000710521F0FB019383828304C0909337032C
:1035E00080933603FD01329644C0FD01E20FF31FC4
:1035F00081939193225031092D933C933AC02091AD
:10360000340330913503232B41F420911201309182
:10361000130130933503209334032091100130912E
:1036200011012115310541F42DB73EB74091140128
:1036300050911501241B350BE0913403F0913503B3
:10364000E217F307A0F42E1B3F0B2817390778F079
:10365000AC014E5F5F4F2417350748F04E0F5F1FD8
:1036600050933503409334038193919302C0E0E07B
:10367000F0E0CF01DF91CF9108950F931F93CF9387
:10368000DF93009709F48CC0FC01329713821282F9
:1036900000913603109137030115110581F4208143
:1036A0003181820F931F2091340330913503281705
:1036B000390779F5F0933503E093340371C0D801ED
:1036C00040E050E0AE17BF0750F412962D913C91A8
:1036D0001397AD012115310509F1D901F3CF9D01F2
:1036E000DA013383228360817181860F971F8217ED
:1036F000930769F4EC0128813981260F371F2E5F6B
:103700003F4F318320838A819B8193838283452B22
:1037100029F4F0933703E093360342C01396FC93E9
:10372000EE931297ED01499159919E01240F351F97
:10373000E217F30771F480819181840F951F02963F
:1037400011969C938E938281938113969C938E9372
:103750001297E0E0F0E0D80112968D919C911397BA
:10376000009719F0F8018C01F6CF8D919C9198018A
:103770002E5F3F4F820F931F20913403309135030A
:103780002817390769F4309729F4109237031092FB
:10379000360302C013821282109335030093340360
:1037A000DF91CF911F910F910895A0E0B0E0EBED74
:1037B000FBE10C94CB17EC01009721F4CB010E94A4
:1037C000A81AB8C0FC01E60FF71F9C01225031096E
:1037D000E217F30708F4ACC0D9010D911C911197C1
:1037E00006171707B0F00530110508F49FC0C8018F
:1037F00004978617970708F499C002501109061B11
:10380000170B019311936D937C93CF010E943D1B85
:103810008DC05B01A01AB10A4C01800E911EA091CF
:103820003603B091370340E050E0E12CF12C1097C3
:1038300009F44AC0A815B905D1F56D907C9011978F
:10384000630182E0C80ED11CCA14DB0480F1A3011D
:103850004A195B096A0182E0C80ED11C1296BC901D
:1038600012971396AC91B5E0CB16D10440F0B2821A
:10387000A38351834083D9016D937C930AC00E5F6B
:103880001F4FC301800F911FF90191838083EB2D9E
:10389000FA2FE114F10431F0D7011396FC93EE9363
:1038A000129744C0F0933703E09336033FC08D91E5
:1038B0009C9111974817590708F4AC017D011296A5
:1038C0000D90BC91A02DB3CF80913403909135031E
:1038D00088159905E1F446175707C8F4809110013F
:1038E00090911101009741F48DB79EB7409114015A
:1038F00050911501841B950BE817F907C8F4F09354
:103900003503E0933403F901718360830FC0CB0169
:103910000E94A81A7C01009759F0A801BE010E94DC
:10392000A41CCE010E943D1BC70104C0CE0102C0F1
:1039300080E090E0CDB7DEB7EEE00C94E71781E0D1
:1039400090E0F8940C94B41CFB01DC0102C00190DF
:103950000D9241505040D8F70895FB01DC010190D1
:103960000D920020E1F7089511E0C6E1D1E004C016
:10397000FE010E949B1A2196C731D107C9F7F8941E
:02398000FFCF77
:10398200FFFFFFFF00E10000000000000100000057
:1039920000003803800000C18081000000D202AB29
:1039A200028402000000000B028002050321022CA7
:1039B200022D0309030000000089094C02290400BA
:1039C20000000000000000820A0000000088094A8E
:1039D200027E046E6F6E65002D2D2D2D2D2D2D2D49
:1039E2002D2D2D2D2D2D2D2D2D2D2D204F6273742E
:1039F20061636C65202D2D2D2D2D2D2D2D2D2D2D21
:103A02002D2D2D2D2D000D0A003A2052616469756D
:103A1200733A20002054686574613A200020526194
:103A22006E67653A2000202D20003A00534F4E4128
:103A320052004C45465400524947485400524541B1
:0E3A420052006E616E00696E66006F7666005F
:00000001FF
